:10D10000380C0020612F0200CD2E0200918E02000B
:10D110009D8E0200A98E0200C18E0200B58E020013
:10D12000000000000000000000000000AD3502001B
:10D13000DD2E02000000000059350200E12E020041
:10D14000E52E0200E92E020031240200813802009F
:10D15000ED2E0200F12E0200F52E0200F92E020043
:10D16000FD2E0200012F0200052F0200092F0200F0
:10D170000D2F0200112F0200152F0200192F02009F
:10D180001D2F0200212F0200252F0200292F02004F
:10D190002D2F0200312F0200352F0200392F0200FF
:10D1A0003D2F0200A1380200412F020091380200F9
:10D1B000452F0200492F02004D2F0200512F02007F
:0CD1C000552F0200592F02005D2F0200C5
:10D1FC0000015F5F00000000FE0B0000153702000D
:10D20C00000400000000000000000000000000000E
:10D21C000000000000000000407100200000000031
:10D22C0001015F5F01000000FF0300007537020081
:10D23C0000010000000000000000000000000000E1
:10D24C0000000000000000004075002000000000FD
:10D25C0001015F5F050100001F010000C5F1000026
:10D26C0000070000000000000100000001000000A9
:10D27C000000000000000000102D00200000000045
:10D28C00800000AE941B030020000000030F000080
:10D29C000100000009F100000100000001015F5FC6
:10D2AC002D0100000F030000091001000010000008
:10D2BC00000000000000000005000000000000005D
:10D2CC0003000000A049002000000000AC1B03007C
:10D2DC00800000AE000F0000010000000000000004
:10D2EC0010000000C01B03007000000000050000CF
:10D2FC00010000000000000020000000CC1B030017
:10D30C00710000000005000001000000000000009A
:10D31C0040000000D81B0300720000000005000054
:10D32C00010000000000000080000000EC1B030066
:10D33C007300000000050000010000000000000068
:10D34C00000100009D370200B13802002D010000E1
:10D35C000300000000000080E9370200C938020019
:10D36C002D0100001B0000000000004035380200B9
:10D37C00BD3802002D010000190000000000002043
:10D38C0001015F5F2C0100000F03000095230200D8
:10D39C000010000000000000000000000100000070
:10D3AC000000000000000000680C002000000000DD
:10D3BC00FC1B0300700000AE000500000100000023
:10D3CC00000000001000000001015F5F2E01000052
:10D3DC000F020000050C010000100000000000000E
:10D3EC00000000000100000000000000010000002F
:10D3FC00681C002000000000101C0300000500AE9B
:10D40C0000050000010000000000000010000000FA
:10D41C00E5230200412402002E010000020000005E
:04D42C00000000807C
:10D44000F8B50D4617460446C0E9265700F1A00777
:10D4500048220021ED0F38461E461BF0DDFF002359
:10D460009FED157BC4F8D8500225069A204606CABF
:10D47000C4F8C06084ED347BC4E9373384F8C85005
:10D4800024F00AF82146384602F05CF9054638B126
:10D4900003280BD019280CBF012503252846F8BD09
:10D4A0002046052124F066F82846F8BD04252846C4
:10D4B000F8BD00BFAFF300805D81FF7F000000007A
:10D4C0009FED357B4FF4C2039FED356B70B504467D
:10D4D00086B04FF0FF308DED006B8DED027B049335
:10D4E00012F0BEFD002839D12F4D4FF0FF3012F061
:10D4F000E9FD2E4AD2F8003FD907FBD44FF0E06196
:10D5000001202B4B19600199596002999960039988
:10D51000D960049919612549C2F8000FD1F8003F7C
:10D520009B07FBD5224B1A68002A4FF00202A2BFCC
:10D530005B68002623601D4BB8BF4FF0FF36C3F871
:10D54000002F12F0CBFD0023C5F8083212F094FD35
:10D55000012002F079FE304606B070BD0026124D63
:10D560004FF4807231462846C5F808621BF054FF1C
:10D570004FF480723146A8181BF04EFF04F024F9D6
:10D5800018B9012002F03CFEAFE7C5F8086212F0BE
:10D5900073FDAAE7AFF30080000000000000000068
:10D5A0000000000747365A4F1034002000300F406B
:10D5B00000000F400000000070B50546164C4FF407
:10D5C0008072002120462E691BF026FF4FF48072E6
:10D5D0000021A0181BF020FF0DA1D1E90001EB6A8A
:10D5E000326923610023C4E909336361E362636341
:10D5F0004FF0C8532263AA6BC4E90201A2616A6CAE
:10D6000023602262B5F84820C2F30B02E26170BDCC
:10D610002E00080808000000103400200000000060
:10D6200070B50546184C4FF48072002120462E69D3
:10D630001BF0F2FE4FF480720021A0181BF0ECFEEC
:10D64000002233694FF0C8512363AB6B6262A36160
:10D65000B5F84830E262C3F30B0343F49003E3618F
:10D66000626300230022686C503520622160C4E9A7
:10D67000042303A1D1E90001A562C4E9020170BD40
:10D680002F000808080000001034002000000000EF
:10D6900070B5826FC36E04469A42474B474A0D46A7
:10D6A000DA62037E84B020D0042B01D00F295ED82B
:10D6B0000026636B404AC2F89030A36BC2F89430E6
:10D6C000E36BC2F89830236CC2F89C30002E37D040
:10D6D000237E022B02D0002004B070BDEFF305833F
:10D6E000002B51D0606904B070BD042B01D00F290C
:10D6F00050D800269FED2E7B94F88120E16AC2F17C
:10D700000E030DF101008DED007B8DED027B8DF898
:10D7100000301BF043FE0121009B274A8DF80F10BB
:10D72000C2F89030019BC2F89430029BC2F8983046
:10D73000039BC2F89C30D069C307FCD4002EC7D12C
:10D74000D4E9090133462A4608F0EEF9A26F1A4BD4
:10D75000521BA267D3F890206263D3F89420A2638F
:10D76000D3F89820E263D3F89C302364B3E70B46E8
:10D77000D0E9091208F0B4F9A36F01261B1AA367B8
:10D78000636E1B1A636694E74FF0FF310C4812F08A
:10D79000F5FBA7E70B46D0E9091208F0A1F9A36F42
:10D7A00001261B1AA367636E1B1A6366A2E700BFFC
:10D7B000000000000000000000000C402A002A01C8
:10D7C000406300200000000030B5C36905460C46E8
:10D7D00085B0002B3ED1284B284ADA629FED247B8E
:10D7E00095F820202969C2F10E030DF101008DED9D
:10D7F000007B8DED027B8DF800301BF0CFFD00210A
:10D80000009A1D4B8DF80F10C3F89020019AC3F8B1
:10D810009420029AC3F89820039AC3F89C20DA69EE
:10D82000D207FCD42168EA69C3F880106168C3F8A4
:10D830008410A168C3F88810E168C3F88C10196FD0
:10D840002160596F6160996FA160DB6FE3602AB955
:10D8500005B030BD084B0A4ADA62BFE70123D5E9BB
:10D86000020105B0BDE8304008F05EB9AFF30080BA
:10D87000000000000000000000000C4028002A0109
:10D880002A002A01000000002DE9F0470468DDE9C4
:10D890000889D4F8E050002D78D11E4694F8F03075
:10D8A000002B73D18E464FF0010A04F1040CD645CB
:10D8B00007460FCA8CE80F006561C4E91A68C4F80E
:10D8C000DC6084F87CE084F88090256784F87F50E1
:10D8D000C4F8D88084F8F0A051D02022002104F1AF
:10D8E00082001BF099FD1022002104F1A2001BF020
:10D8F00093FD1022002104F1C4001BF08DFD1022C5
:10D90000002104F1B2001BF087FD0023227923637C
:10D91000282AA36503D1204605F09CFC0546102E5D
:10D9200005D9D4F8E4304BB12846BDE8F087B8F10A
:10D93000100FF9D9D4F8E430002BF5D1394620681E
:10D9400004F0D2F940B33C68302294F87C30012BCB
:10D9500019BF15A1D1E900010021114804F000FB15
:10D960003A4604200F4904F0F5F990B904F03AFA68
:10D9700078B9656904F0E0F92846BDE8F087B9F1A7
:10D98000000FAAD1102384F88030A6E74FF0FF35AE
:10D99000CAE74FF0FF35EDE76FF00105C4E700BFC0
:10D9A0000228140075310100022824000000000044
:10D9B0002DE9F84F0B680D461A780646022A5DD00D
:10D9C000082A5BD0222A02D0282A40F0968095F8B7
:10D9D00020903468A9F10702062A00F28E80D4F85C
:10D9E000E020002A40F08980D5E9067E17EB0E0F73
:10D9F00000F0838094F8F080B8F1000F7DD101220F
:10DA000004F1040C84F87C200FCBC4F81480A565C5
:10DA10008CE80F006B68D5E902BAD5E9042CC4E99B
:10DA2000083BC4E90AA2C4F830C0C4F85CE0C4F8FA
:10DA30006CE095F821303146002B08BF1023C4F864
:10DA4000D8E0206884F88190C4F8E480C4F8D470E9
:10DA5000A766C4F8DC7084F8803004F045F900282B
:10DA60004ED0EB69102B01D91B070ED12379282B3F
:10DA700025D03046BDE8F84F06F0E6BA29463046D4
:10DA8000BDE8F84F012206F0E3B93568302295F879
:10DA90007C30012B19BF1FA1D1E9000100211A48D8
:10DAA00004F05EFA32460420184904F053F90028C5
:10DAB000DCD104F097F90028D8D16B69D6E720466D
:10DAC00005F0C8FB04460028D3D03568D5F8E4003B
:10DAD00020B904F031F92046BDE8F88F04F070FA5F
:10DAE000324604200A4904F035F90028F1D104F047
:10DAF00079F90028EDD16B69EBE74FF0FF34EAE7E5
:10DB00006FF00104E7E700BF02281400753101003F
:10DB10005531010002282400000000000000000030
:10DB20002DE9F84F0B680D461A780646022A59D09F
:10DB3000082A57D0222A02D0282A40F0928095F84D
:10DB400020903468A9F10702062A00F28A80D4F8EE
:10DB5000E020002A40F08580D5E9067E17EB0E0F05
:10DB60007FD094F8F080B8F1000F7AD1022204F14E
:10DB7000040C84F87C200FCBC4F81480A5658CE8D5
:10DB80000F006B68D5E902BAD5E9042CC4E9083B5B
:10DB9000C4E90AA2C4F830C0C4F85CE0C4F86CE080
:10DBA00095F821303146C4F8D8E0206884F88030F8
:10DBB00084F88190C4F8E480C4F8D470A766C4F8EF
:10DBC000DC7004F091F800284ED0EB69102B01D9DD
:10DBD0001B070ED12379282B25D03046BDE8F84FFE
:10DBE00006F032BA29463046BDE8F84F022206F068
:10DBF0002FB93568302295F87C30012B19BF1FA151
:10DC0000D1E9000100211A4804F0AAF932460420A3
:10DC1000184904F09FF80028DCD104F0E3F800284C
:10DC2000D8D16B69D6E7204605F014FB04460028DE
:10DC3000D3D03568D5F8E40020B904F07DF820464B
:10DC4000BDE8F88F04F0BCF9324604200A4904F01C
:10DC500081F80028F1D104F0C5F80028EDD16B69F6
:10DC6000EBE74FF0FF34EAE76FF00104E7E700BFAE
:10DC700002281400753101005531010002282400EA
:10DC8000000000000000000030B50468054660692F
:10DC900083B0002854D1C1B194F87CC06267BCF154
:10DCA000010FA267A166C4F8DC10E26684F8803038
:10DCB000206784F87F00C4F8D82044D0102917D9F1
:10DCC000D4F8E430D3B103B030BD002A4DD094F87D
:10DCD0007C1062670129A267A066C4F8DC00E266D6
:10DCE00084F88030206784F87F00C4F8D82030D0D2
:10DCF000102AE8D9D4F8E430002BE4D12946206872
:10DD000003F0F2FF70B32C68302294F87C30012BC2
:10DD100019BF19A1D1E900010021154804F020F92B
:10DD20002A460420134904F015F8C0B904F05AF843
:10DD3000A8B96069019003F0FFFF019803B030BDFE
:10DD4000606903B030BD002BB8D1102384F8803057
:10DD5000B4E7002BCCD1102384F88030C8E74FF013
:10DD6000FF30E7E76FF00100ADE74FF0FF30AAE7C3
:10DD70000228140075310100022824000000000070
:10DD80002DE9F04104684A4A94F84810494B11F0D3
:10DD9000100F94F8491005460CBF4FF400604FF483
:10DDA0008060012908BF134622798AB0222A09D04F
:10DDB000282A50D0A26D62B14FF0FF3630460AB02B
:10DDC000BDE8F081A36DA768002BF5D12646F26867
:10DDD00001E026461746012919BF33A1D1E9000108
:10DDE0000021354804F0BCF82A460420334903F0EA
:10DDF000B1FF0028E0D103F0F5FF0028DCD17669FF
:10DE0000002EDBD1206812F05DF9002845D00123F7
:10DE1000D5F8008084F8613098F80430222B36D091
:10DE2000282B14BF3146D8F808103846D8F85820A7
:10DE300004F0AAF82A460420214903F08BFF48BBCE
:10DE400003F0D0FF30BBD8F8146012F047F9304629
:10DE50000AB0BDE8F08101900093202204F158033C
:10DE600002A9201D03F050FA06460028A6D1A26D93
:10DE700052B92E68337996F84910222B12D0282BEC
:10DE800002AFA8D1B268A6E784F8610096E7D8F897
:10DE90000C10CAE74FF0FF36D7E703F04DFF6FF0E5
:10DEA00001068BE702AF92E701281208000000008C
:10DEB0000002C0030001C00301281200254A01002E
:10DEC000D9490100000000002DE9F047046806462A
:10DED00094F84830676C13F0EF0336D0626D002A77
:10DEE0004AD04FF000094FF0FF385D1EBB6818BFE5
:10DEF00001250F2B30D93A68E2641A071CBF0025B0
:10DF000023F00F0320462A464946236504F016FDF8
:10DF1000206812F0D7F800284CD032463249207ED3
:10DF200003F018FF38B903F05DFF20B9D4F814806E
:10DF30004046BDE8F08712F0D1F8304606F0C8FD43
:10DF400003F0FAFE4046BDE8F0870125BB684FF0BC
:10DF5000FF380F2BA946CED804F1300A1022002139
:10DF600050461BF059FA5046BA6839681BF016FA49
:10DF7000BB68C4F84CA0C5E794F849301022012BC7
:10DF800019BF17A1D1E900010021184803F0E8FFEB
:10DF900032460420164903F0DDFE80B903F022FF6B
:10DFA0004FF0010994F8483090B9D4F8148003F088
:10DFB000EF039AE703F0C0FE6FF00108B8E794F8AA
:10DFC00048304FF001094FF0FF3803F0EF038CE7C2
:10DFD0004FF0FF3803F0EF0387E700BFAFF3008097
:10DFE0000228120800000000694B010002281200FC
:10DFF000454A010000000000F8B50468E66D751C94
:10E000003AD00F4694F849100546022936D0F968EF
:10E0100001390F2935D894F8606096BB84F84830F0
:10E0200004F1040C0FCA676466618CE80F001023CA
:10E0300004F12000194632466665A6650BF056FCD1
:10E040002946206803F050FE002839D02846FFF703
:10E0500097FEBB680646102B01D91B0714D136B9B1
:10E060002846BDE8F840FFF72FBF4FF0FF3628469F
:10E0700006F02EFD03F060FE3046F8BDB9680029B9
:10E08000C5D14FF0FF36F7E72C68102294F84930DD
:10E09000012B19BF0EA1D1E9000100210A4803F0AC
:10E0A0005FFF2A460420094903F054FE0028DCD112
:10E0B00003F098FE0028D8D16669002ED0D0D6E7AC
:10E0C0006FF00106D8E700BF02281200454A0100A0
:10E0D00002281208000000002DE9F8430468DDF86A
:10E0E0002080D4F8EC50002D72D11E4694F8FC30FC
:10E0F000002B6DD18E464FF0100904F1040C074639
:10E100000FCA8CE80F0084F898E065612022294648
:10E11000C4F89080C4F88860C4F88C80C4F8946017
:10E12000E567C4F8805084F8999004F19B001BF0D7
:10E1300073F94A46294604F1BB001BF06DF94A46C3
:10E14000294604F1DC001BF067F94A46294604F130
:10E15000CB001BF061F9012384F8FC30237925639F
:10E16000282BA56703D1204608F06AFC0546102E2F
:10E1700005D9D4F8F4304BB12846BDE8F883B8F19E
:10E18000100FF9D9D4F8F430002BF5D139462068B6
:10E1900003F0AAFD20B33C68302294F89830012B9C
:10E1A00007BF12A1D1E9000112A1D1E9000103F0DA
:10E1B000D7FE3A4604200C4903F0CCFD58B903F0D1
:10E1C00011FE40B9656903F0B7FD2846BDE8F88344
:10E1D0004FF0FF35D0E703F0AFFD4FF0FF35F2E72A
:10E1E0006FF00105C8E700BF5D690100022814084F
:10E1F00000000000022824080000000000000000C9
:10E200002DE9F843D1E9067E1EEB070F046800F004
:10E210009780D4F8EC30002B40F0928094F8FC808A
:10E22000B8F1000F40F08C8001230D4684F898303F
:10E230000B6804F1040CC4F81480A16706460FCBE8
:10E240008CE80F006B68D5E90290D5E9042CC4E98D
:10E250000839C4E90A02C4F830C0C4F87CE0C4F844
:10E260008CE095F82130C4F88070002B08BF102393
:10E27000C4F8887095F820203146C4F890E084F8FE
:10E280009A20C4F89470C4F8F48084F89930206817
:10E2900003F02AFD002856D0EB69102B0ED8237905
:10E2A00004F13405282B28D01022002128461BF029
:10E2B000B3F83046BDE8F84308F056BD1B07EED072
:10E2C0003568302295F89830012B07BF24A1D1E999
:10E2D000000125A1D1E9000103F042FE32460420ED
:10E2E0001D4903F037FD88BB03F07CFD70BB6B69F3
:10E2F000237904F13405282BD6D1204608F0A0FB61
:10E3000004461022002128461BF086F8002CD0D0AD
:10E310003568D5F8F40020B903F00EFD2046BDE8BD
:10E32000F88303F04DFE324604200C4903F012FD41
:10E330000028F1D103F056FD0028EDD16B69EBE721
:10E340004FF0FF34EAE76FF00104E7E703F0F4FC75
:10E35000A5E700BFAFF300805D69010041690100DE
:10E360000228140800000000022824080000000011
:10E370002DE9F843D1E9067E1EEB070F046800F093
:10E380009480D4F8EC30002B40F08F8094F8FC801F
:10E39000B8F1000F40F0898002230D46064684F84C
:10E3A00098300B6804F1040CC4F81480A1670FCBFB
:10E3B0008CE80F006B68D5E90290D5E9042CC4E91C
:10E3C0000839C4E90A02C4F830C0C4F87CE0C4F8D3
:10E3D0008CE095F82130C4F8807084F89930C4F846
:10E3E000887095F820303146C4F890E084F89A306F
:10E3F000C4F89470C4F8F480206803F075FC002819
:10E4000056D0EB69102B0ED8237904F13405282B54
:10E4100028D01022002128461AF0FEFF3046BDE821
:10E42000F84308F0A1BC1B07EED03568302295F800
:10E430009830012B07BF24A1D1E9000124A1D1E923
:10E44000000103F08DFD324604201D4903F082FCDB
:10E4500088BB03F0C7FC70BB6B69237904F13405FA
:10E46000282BD6D1204608F0EBFA044610220021D2
:10E4700028461AF0D1FF002CD0D03568D5F8F4002A
:10E4800020B903F059FC2046BDE8F88303F098FD5D
:10E49000324604200B4903F05DFC0028F1D103F063
:10E4A000A1FC0028EDD16B69EBE74FF0FF34EAE700
:10E4B0006FF00104E7E703F03FFCA5E7AFF300804E
:10E4C0005D69010041690100022814080000000094
:10E4D000022824080000000030B50368044658698B
:10E4E00083B000283FD181BB002A47D0C3E9220274
:10E4F000C3F89400C3F89020102A32D9D3F8F4203E
:10E500007ABB2146186803F0EFFB002833D025685A
:10E51000302295F89830012B07BF1CA1D1E90001EA
:10E520001CA1D1E9000103F01BFD2246042016497D
:10E5300003F010FCD0B903F055FCB8B9686901903C
:10E5400003F0FAFB019803B030BD1029C3F8941012
:10E55000C3E92212C3F89020CED9D3F8F420002AC0
:10E56000CFD003B030BD586903B030BD03F0E4FB39
:10E570004FF0FF30E3E76FF00100F2E74FF0FF30BC
:10E58000EFE700BFAFF300805D69010002281408C7
:10E590000000000002282408000000000000000025
:10E5A0002DE9F047046894B0A36A013300F040837A
:10E5B0000022237F0746012B228201D0022B44D167
:10E5C000A3695E68002E40D0A34D31682B68994244
:10E5D0004BD1B269AB699A4247D1696870680BF058
:10E5E00067F9002840D0B269296930690BF060F9F9
:10E5F000002839D0E023012019466074E38120739C
:10E6000004F1400304F13C0220F056FD002800F024
:10E6100097822268137803F0DF01022902D0282BA9
:10E6200040F024826068257F0178012D01F0DF0130
:10E6300048D002293AD06FF02205284614B0BDE830
:10E64000F087607C002840F07283207B431E072BFC
:10E6500000F26F83DFE813F0DB00C600BC00EF00C0
:10E66000C600BC00E600E00031687C4D2B688B42A0
:10E6700040F0F980B269AB699A4240F0F480696871
:10E6800070680BF015F9002800F0EC80B269296978
:10E6900030690BF00DF9002800F0E4804FF4807130
:10E6A00001200223E18160742373A9E7A16809783E
:10E6B00001F0DF01042907D06FF02305284614B0CC
:10E6C000BDE8F0870429B6D11B07E38954BF9168E0
:10E6D00051680733B1EBD30F4FEAD30640F0B7824E
:10E6E000A37F8268002B55D149000131914240F04F
:10E6F0008480022D00F08480012D66D100214068C5
:10E700001AF08AFE0021902204F144001AF084FEDF
:10E710003946206A03F0E8FA002800F0BF82206A38
:10E7200011F0D0FC002800F0B7823E6833681A78F8
:10E73000282A00F09E8135464FF00008D3F8049057
:10E74000EA892B7B1F325209082B02F1010207BF15
:10E750003DA1D1E900013EA1D1E90001920003F001
:10E76000FFFB3A4604203E4903F0F4FA002840F04B
:10E77000E28103F037FB002840F0DD81AD6A002D17
:10E7800000F0928003F0B0F811F0A8FC284614B015
:10E79000BDE8F087237B082B2DD0B2EB410F2CD1A5
:10E7A000022DA9D1A36899688E4200F03281B1EBA5
:10E7B000460F4FEA460203D00132914240F0718287
:10E7C000002158681AF028FE9CE7A3689A68F7E7CA
:10E7D0004FF4C0710328E18109D040F201230220E7
:10E7E00023820DE74FF480710228E181F5D10123E6
:10E7F0001846637404E79142D2D06FF025051CE7F8
:10E8000043681B78042BCDD06FF0280515E7E02175
:10E810000123E1816374F3E6FF2303201946E381BA
:10E820006074EDE64FF4007340F2012202201946B5
:10E83000E3812282E4E640F2092301201946E381C4
:10E840006074DDE6AFF30080014841040000000081
:10E850000148210400000000841F0200682002001B
:10E86000717301003168BA4D2B688B4240F02981E9
:10E87000B269AB699A4240F02481696870680BF014
:10E8800017F8002800F01C81B269296930690BF083
:10E890000FF8002800F014814FF4C0710120032309
:10E8A000E18160742373ABE60123D7F800A086F8FA
:10E8B000D430BAF80E501F356D091D44AD00B8F1C3
:10E8C000000F00F0A8809AF80C30082B0BD199F8B3
:10E8D000043023F0070389F8043099F8233043F01B
:10E8E000400389F8233029464846DAF82C2003F003
:10E8F0004BFB3A460420974903F02CFA002840F0DD
:10E900001A8103F06FFA002840F01581DAF82850D8
:10E91000002D7FF437AFD7F80080B8F80E2098F8B4
:10E920000C301F325209082B02F1010200F0C380A3
:10E9300000218948D20003F013FB3A46042087499E
:10E9400003F008FA002840F0F68003F04BFA0028A4
:10E9500040F0F180D8F82850002D7FF413AF98F8DC
:10E960001C80B8F1020F00F0298102F0BDFF0028E1
:10E9700040F0C480337F022B00F0C0803D6800214E
:10E980002A6C774803F0ECFA3A460420754903F004
:10E99000E1F9002840F0CF8003F024FA002840F08D
:10E9A000CA80AD6A002D7FF4EDAE3E68D6E90F0156
:10E9B000B26B03F0E9FA3A4604206B4903F0CAF956
:10E9C000002840F0898103F00DFA0546002840F048
:10E9D0008381B66A02F088FF002840F03E81002E55
:10E9E00040F0A381237B082B3FF427AE3C682046F0
:10E9F00003F0A0FB3A4604205C4903F0ABF9002881
:10EA000040F09E8003F0EEF9002840F09980A56A5E
:10EA100013E63246D4E641460AF144082A46404607
:10EA20001AF0FAFCDAF800309AF810205868BAF8B0
:10EA30000E109AF81E30CDF8008011F09FFB9AF866
:10EA40000C30082B0BD19AF8483023F007038AF8D2
:10EA500048309AF8673043F040038AF86730294617
:10EA60004046DAF82C2003F08FFA42E76FF02105D8
:10EA7000E3E511F033FB4FF480453346DFF8F8C08F
:10EA800053F82C0B4822CDE900C502A902F03CFC4A
:10EA90000546306A11F016FB8046002800F0D2804F
:10EAA000002D7FF46FAEF36A002B40F0D3803D68F9
:10EAB0000DF1080944E6920023A1D1E900013AE7EB
:10EAC00031682B4D2B688B4259D1B269AB699A42A0
:10EAD00055D1696870680AF0EBFE00284ED0B26923
:10EAE000296930690AF0E4FE002847D040F2092184
:10EAF00001200423E1816074237381E53D68EA8984
:10EB00002B7F1F32012B4FEA521200F094809200AB
:10EB100040F20140002103F023FA3A46042015494F
:10EB200003F018F938B903F05DF920B9AD6A002D8A
:10EB30003FF424AF26E64FF0FF3523E611F0CEFA7E
:10EB40004FF0FF3579E500BF0140410000000000B3
:10EB5000401E0200CD7201000140210091730100AE
:10EB600001440F00D1730100F1730100E57201004F
:10EB7000841C0200B17301000000020931686F4D6E
:10EB80002B688B4271D1B269AB699A426DD16968C9
:10EB900070680AF08DFE002866D0B2692969306974
:10EBA0000AF086FE00285FD04FF48071052240F203
:10EBB00001230220E1812273238221E529463D6859
:10EBC0009022EB8905F1440A1F335B09504603F19B
:10EBD00001091AF021FC2B7BE989082B08BF4FF0B3
:10EBE00001086B6808BF4FEA890958682B7CCDF88B
:10EBF00004A095F81EC018BF4FEAC9094246CDF8D7
:10EC000000C011F0D9FA494650462A6B03F0BCF90E
:10EC10003A4604204A4903F09DF800288BD103F0BE
:10EC2000E1F8002887D1AD6A002D7FF4ABAD9CE6FA
:10EC30006FF01F0501E52B7B0132082B3FF467AF16
:10EC4000D20065E703F078F86FF001059AE56FF000
:10EC50002405F2E486F8D4505DE611F03FFA002E68
:10EC60003FF4C0AE3546E8E43168364D2B68994232
:10EC70001BD1B269AB699A4217D1696870680AF012
:10EC800017FE88B1B269296930690AF011FE58B1DE
:10EC90004FF4C07106228AE703F04EF86FF00105C9
:10ECA000CBE46FF02605C8E43168274D2B68994204
:10ECB0001BD1B269AB699A4217D1696870680AF0D2
:10ECC000F7FD88B1B269296930690AF0F1FD58B1E0
:10ECD0004FF4007107226AE702F006FE00287FF475
:10ECE0002DAF4FF0FF354FE53168184D2B68994235
:10ECF0007FF4A7ACB269AB699A427FF4A2AC6968B1
:10ED000070680AF0D5FD00283FF49BACB269296910
:10ED100030690AF0CDFD00283FF493ACFF210320B9
:10ED20000823E181607423736AE435462CE5E189A8
:10ED300066E400236FF0200563747EE4A01B0200EC
:10ED4000CD7201005C1A0200B8180200BC17020064
:10ED50002DE9F04F05688DB06B6A013300F0D0816A
:10ED60002B7D04465A1E012A76D9032B00F04881D8
:10ED70006A68137819076DD55368202B40F08B8192
:10ED8000FF21042005F1400305F13C0220F094F935
:10ED9000002800F083812146286A02F0A5FF06467C
:10EDA000002800F07E8127683B7D5A1E012A40F230
:10EDB0009380B8467868032B72D0C1460026D0F8FD
:10EDC00004A0C6A1D1E90001242203F0C9F822461B
:10EDD0000420B94902F0BEFF002840F0F98003F09A
:10EDE00001F8002840F0F480D8F824503DBB0125FC
:10EDF00099F8142089F80A50023AAA42D4F80090EF
:10EE000040F200813B7D023B012B40F2B2800021A9
:10EE1000AA48D9F8402003F0A3F822460420A849C4
:10EE200002F098FF002840F0D38002F0DBFF0028BA
:10EE300040F0CE80D9F82450002D00F0B18020465B
:10EE400009F0B2F902F078FF28460DB0BDE8F08F66
:10EE500004281DD1936890E72A68117801F0DF003B
:10EE600002281BD0282913D15268202A40F0408163
:10EE70006968012B08780A4600F0DF00E8D00B78BB
:10EE80000A4603F0DF010229E4D0282B3FF474AFD7
:10EE90006FF0220528460DB0BDE8F08F9268E4E7D8
:10EEA0000378282B89D14FF400630193854B2422EA
:10EEB000009303A908F12C0302F026FA0546002866
:10EEC000BDD1D8F82C30002B40F01581C1460DF192
:10EED0000C0AD4F8008074E738680378282B00F017
:10EEE000BD803D464FF00009D0F804806EA1D1E905
:10EEF0000001242203F034F822460420724902F073
:10EF000029FF002864D102F06DFF002860D16D6AEE
:10EF1000002D94D14FF0010A25682B68D3F804B076
:10EF200087F809A0B9F1000F55D040462421AA6AFC
:10EF300003F02AF822460420644902F00BFF00285F
:10EF400042D102F04FFF00283ED16D6A002D7FF4C0
:10EF500076AFD4F8008098F81430022BD8F804006B
:10EF60007FF429AF0378282B7FF427AF4FF4806319
:10EF70009BE74FA1D1E90001402202F0F1FF2246B8
:10EF80000420534902F0E6FE10BB02F02BFFF8B953
:10EF9000D9F82450002D7FF452AFD4F8009036E712
:10EFA0002568D5E90F012A6B02F0EEFF2246042006
:10EFB000484902F0CFFE58B902F014FF40B96D6A1B
:10EFC000002D3FF467AF3AE7013001D102F0B4FE03
:10EFD0004FF0FF3533E705F15008494624224046FB
:10EFE0001AF01AFA584652465346FF21CDF80080CF
:10EFF00011F0C4F840462421AA6A02F0C5FF99E73F
:10F0000069683CE7002E3FD1314609F150062422C1
:10F0100030461AF001FAD9F804302A465868FF2120
:10F020002B46CDE9005611F0C7F830462421D9F817
:10F030002C2002F0A9FF22460420274902F08AFE74
:10F040000028C5D102F0CEFE0028C1D1D9F8245045
:10F05000002D7FF4F4AED4F80090D3E64FF4804254
:10F06000184B03A9CDE90032242207F1280302F04E
:10F070004BF9054600287FF4E2AEBB6A93BBB1466C
:10F0800025680DF10C0831E750462421D9F82C20D1
:10F0900002F07AFFCFE76FF00605FBE64FF0FF3591
:10F0A000F8E66FF01F05F5E6014850380000000053
:10F0B0000228D001000000000181010001440F007E
:10F0C0004181010000080006E1800100C9800100C3
:10F0D00021810100798101009181010001405038B6
:10F0E00000000000D4F80080787298F8143034E7FB
:10F0F0006FF00505CEE6D4F8009088F80A0081E6A6
:10F100006FF02005C6E600BF40F2E932F0B50368B3
:10F110000446934285B026D040F2EA3293421DD194
:10F120000369042B48D1036A042B45D18568244820
:10F130000021056002AA60681AF0D8F90428064682
:10F140003AD1029803A900F08FF9054640B901466B
:10F150003346606803AA1AF0D5F901E06FF085051F
:10F16000284605B0F0BD0669076A731E3F2B23D8F9
:10F1700017B38268124B002140681A601AF0FEF93A
:10F180000021054660681AF009FA024603A80090BB
:10F190003B462846314600F03DF905460028DFD1C0
:10F1A00029466068039A1AF001FA606829461AF045
:10F1B000EDF9284605B0F0BD6FF08605D0E700BF39
:10F1C000205D002000F018B9202230B58DB0054632
:10F1D00004A901A8019213F06FFF60B90446019BD6
:10F1E0002846074902AA04ADCDE9025300F094FA7B
:10F1F00020460DB030BD052420460DB030BD00BF07
:10F2000008DBFEFF30B50D4B83B00193054600F0DF
:10F210005BFA6A4601A900F051F9044608B9009B5F
:10F2200013B1204603B030BD284601220023044913
:10F2300000F04CFA204603B030BD00BF02DBFEFFF9
:10F2400001DBFEFF38B50025044613F003FF2B4613
:10F2500002460349204600F039FA284638BD00BF6F
:10F2600006DBFEFF30B583B0054601A800F0D2FCF6
:10F27000044628B9019A28460349D31700F026FA14
:10F28000204603B030BD00BF07DBFEFF202230B5B3
:10F290008DB0054604A901A8019213F03DFF60B9A5
:10F2A0000446019B2846074902AA04ADCDE9025352
:10F2B00000F01CFA20460DB030BD032420460DB0EE
:10F2C00030BD00BF05DBFEFF30B583B005466846A4
:10F2D00000F07EF9044620B96A462846024900F04B
:10F2E00005FA204603B030BDFFDAFEFF002230B53C
:10F2F0008BB0054602A92020CDE9002213F0F0FED4
:10F3000060B90446202302A9284600916A460549AF
:10F31000019300F0EBF920460BB030BD03242046EA
:10F320000BB030BD04DBFEFFF0B5BDB004460D46AA
:10F330002E4802A9164621F071FEA0B9BDF808308A
:10F3400003F44F42B2F5824F11D0B3F5885F0AD172
:10F35000BDF80A30B3F5C07F1AD0B3F5007F3CD0BA
:10F36000B3F5807F37D0052420463DB0F0BDDBB239
:10F37000122BF8D1BDF80A30B3F5C07F32D0B3F507
:10F38000007F2CD0B3F5807FEDD16FF0060300E055
:10F39000062300220095114602A8FEF751F8B0B9E5
:10F3A0002246134902A800F0A1F9124D05F11C07ED
:10F3B00055F8043F02A8984704460028D4D1AF422C
:10F3C000F6D1314602A800F04DF90028CCD0012832
:10F3D000C9D10224C8E70523DBE70723D9E76FF08B
:10F3E0002303D6E76FF02203D3E700BF5D81FF7FE1
:10F3F00000DBFEFF4814020008B500F0E1F8042825
:10F4000096BF034B6FF0830053F8200008BD00BF88
:10F410003814020000B587B0029221F01002202AB1
:10F4200000900191039306D0402904D06FF086002C
:10F4300007B05DF804FB002BF8D0684604AA02A9C7
:10F44000FFF772FF28B9059B089A136007B05DF8B3
:10F4500004FB042802D96FF08300E9E7014B53F85D
:10F460002000E5E73814020000236FF0004210B5D9
:10F4700086B0CDE90232009320F01003202B0C4619
:10F48000019005D0402803D06FF0860006B010BD73
:10F49000684604AA02A9FFF747FF18B9059B236035
:10F4A00006B010BD042803D96FF0830006B010BD6C
:10F4B000014B53F82000E9E7381402002DE9F04F22
:10F4C00087B0019000285AD09046002A57D00023D8
:10F4D00042F2160A1D46384F04AE07F104091360C4
:10F4E00002913B88534503D0032007B0BDE8F08F5D
:10F4F000B7F802B0BB44CB451CD9304C05E0BDF891
:10F50000123004331C44A34514D90422214630464A
:10F5100019F044FFBDF81030C3F38512AA42EED1B2
:10F5200003F03F033F2BBDF812B016D0062D0DD0CF
:10F530000135D6E7062D09D0CB4505F10105D0D818
:10F5400042F2160339F8041C9942CDD1D8F80030A4
:10F55000CBB9002007B0BDE8F08FD8F800300133F8
:10F56000012BC8F8003014D00434CDF814B0049442
:10F57000092196E80C00019821F0C4FFD6E7042089
:10F5800007B0BDE8F08F0198042122F023F8002095
:10F59000E0E7029B5BB11B6801981A460393DB17F7
:10F5A00021F092FF0421019821F0E4FFDCE704211F
:10F5B000019821F0DFFFD7E7245D0020285D0020BF
:10F5C0004FF400720120014900F02CBB245D0020A3
:10F5D00070B51D4D04462A6886B03AB1002C31D072
:10F5E00000201A4BC4E9003206B070BD184E0092DC
:10F5F00033685BB9174801A921F010FD00BB334601
:10F6000041221549134821F029FDC8B9684613491C
:10F6100021F04AFDA0B9684632680F4921F068FD23
:10F6200070B90F4E684620223146074B21F082FD0B
:10F6300030B901232A6806F8013C1A442A60CDE754
:10F640000320D1E70520CFE7285F00202C5F0020B2
:10F65000505F00205D81FF7F545F002009000002A1
:10F660002D5F002070B5044682B00D46052121F0C3
:10F67000B1FF214604F1A00000F0E6F858B10328DC
:10F6800019D0192803D10123184602B070BD0323F5
:10F69000184602B070BD6E462046314622F07AF818
:10F6A00001280346EFD050B996E8030085E803002F
:10F6B000184602B070BD0423184602B070BD022384
:10F6C000184602B070BD00BF704700BF70B5164647
:10F6D00004461D460A46CB1721F0F6FE32462B465D
:10F6E0002046BDE8704021F0EFBE00BF134670B564
:10F6F000D3E90065044682B00A46CB1721F0E4FE48
:10F7000002212046CDE9006502AB13E90C0002B0EE
:10F71000BDE8704021F0F6BE134670B5D3E9006530
:10F72000044682B00A46CB1721F0CEFE03212046C4
:10F73000CDE9006502AB13E90C0002B0BDE87040F2
:10F7400021F0E0BE2DE9F0410446AAB0006A0E4661
:10F7500000F0FCF800285BD0A36B9A0752D5042177
:10F76000304621F007FF18226B4604AD0094019249
:10F7700093E806002846276A21F08EFE05212846D8
:10F7800021F0F8FE01220023284621F09DFE3A4692
:10F79000FB17284621F098FE0521284621F01AFF84
:10F7A000284602A921F0F6FF074630BB029B039AC8
:10F7B000A361E26123B304F1180393E8030085E831
:10F7C0000300022195E80C00304621F09BFEA36B5C
:10F7D000DB0733D4D4E90F840521304621F0CAFE7B
:10F7E000DCB93046052121F0F5FE0221304621F03A
:10F7F000C1FE38462AB0BDE8F0810023C4E90633D3
:10F800000227F6E712220023304621F0A9FEA6E7E0
:10F81000012738462AB0BDE8F081B8F1000FE0D0EA
:10F8200030460422002321F04FFECDE9048402215A
:10F8300095E80C00304621F065FED2E71C273846DB
:10F840002AB0BDE8F08100BF40232DE9F0430C460B
:10F850002025ADB00DEB03061CAA14AFCDE90E7543
:10F860000C9201213246054620460D9321F01EFFE1
:10F87000A37B1BB101232374192630E0237C012BC9
:10F88000FAD0002B42D12268D5F820C05AB30DF12E
:10F890002008CDF8108002AF0EA903C987E8030045
:10F8A00096E803008DE8030005F11802604606CAD9
:10F8B00000F052F8064690B9AB6B0DF12809DB0752
:10F8C00029D599E8030012AB83E8030002210CCB91
:10F8D000204621F017FE0421204621F07BFE304611
:10F8E0002DB0BDE8F0830BAB029305F1300393E834
:10F8F00003008DE8030028350A92604695E80C0065
:10F9000000F010F90DF128090646DAE7182630460E
:10F910002DB0BDE8F083CDF8189004AA0CA903C956
:10F9200082E8030005F1280398E803000CCB87E880
:10F93000030005F1300C9CE803008DE80300286A01
:10F9400000F090F80028BCD00646C8E7C31D0CBFE5
:10F950006FF00F00002070472DE9F041BCB06F46FA
:10F9600087E8060030210AAA0292039102AA06CA79
:10F970003B4C804616A81E4621F08EFD042116A899
:10F9800021F0F8FD204622F0C7F80025CDE9084017
:10F9900008AC032194E80C0016A821F0B3FD97E809
:10F9A000030084E80300022194E80C0016A821F06B
:10F9B000A9FDCDE90855022194E80C0016A821F014
:10F9C000A1FD002E3CD1CDE90866022194E80C008F
:10F9D00016A821F097FD0125042116A821F0FAFDB3
:10F9E00016A804A921F0D6FE002835D118F1070F7A
:10F9F0000CBF6FF00F01002106A800F0BDF8E0B9C0
:10FA0000DDE904235B1B34BF0121002100291CBF59
:10FA100000230022CDE9082306A894E8060000F0A0
:10FA2000C9F842AB93E8060006A800F0C3F844AA60
:10FA3000469B06A806CA00F0CBF83CB0BDE8F081B2
:10FA400042AB93E8030084E803000B2194E80C0028
:10FA500016A821F057FDBFE715203CB0BDE8F081A6
:10FA60006814020082B010B586B008A9073081E89A
:10FA70000C0005D0012006B0BDE8104002B0704770
:10FA800005A8DDE90E41DDE90C23CDE90110009464
:10FA900023490A9821F07CFB10F1850F32DA10F12E
:10FAA000970F29DB9730112826D801A353F820F0AF
:10FAB0001BFB0000F9FA000017FB0000F9FA000038
:10FAC000F9FA0000F9FA0000F9FA0000F9FA00006A
:10FAD000F9FA0000F9FA000013FB0000F9FA00003F
:10FAE000F9FA0000F9FA0000F9FA0000F9FA00004A
:10FAF000F9FA000075FA0000172006B0BDE81040C2
:10FB000002B070470028F7D1059B109AC2E9004364
:10FB1000B1E71020AFE70D20ADE71220ABE700BF43
:10FB20000906000682B000B587B008A9073018BFE3
:10FB3000012081E80C0004D007B05DF804EB02B0AE
:10FB4000704700230A9801A9CDE90133CDE90333B9
:10FB5000059321F063FA28B1002007B05DF804EBAB
:10FB600002B07047BDF80620D308520718BF013312
:10FB70000C9A5B001360EFE74FF6FF720C4B10B569
:10FB800011F1100F14BF11461946002303600446FB
:10FB900021F08AFA606038B110F1860F05D010F1BB
:10FBA0008A0F14BF0420052010BD032010BD00BF24
:10FBB0000900000210B582B002AB03E906004368F9
:10FBC00023B919B1044621F093FA606002B010BD68
:10FBD00070B582B002AC04E90600426842B112F18D
:10FBE000860F13D08A3214BF0420052002B070BDE6
:10FBF0001D46019A04330E46044621F09BFA6060CC
:10FC000002462E600028EAD102B070BD032002B087
:10FC100070BD00BF0346024A002012681A60704798
:10FC2000205D002008B521F0A3F9003818BF01209D
:10FC300008BD00BF10F4004370B419D001224FF486
:10FC4000807140F202254FF400740020284BC3F865
:10FC50001052C3F81C22C3F8C420C3F81842C3F8DA
:10FC600000025965C3F800229965002070BC7047F6
:10FC7000C2051ED51E48D0F80822002A27DB40F214
:10FC8000DA551C4C26682260A6F5B7117339A942D3
:10FC90001DD8A2F5B7117339A94218D8921B953215
:10FCA000B2F5957F13D84FF4003242658265236028
:10FCB000DBE78303D9D50E4BD3F8C0200A2A11D035
:10FCC0000A214FF40032C3F8C0109A65CDE7002036
:10FCD00001214FF48072064BC3F80002C3F80012F2
:10FCE0009A65C2E7044A0120C3F89C20BEE700BF22
:10FCF00000100040985F002080841E802DE9F843AA
:10FD0000344C206830B10123836000F091FF002261
:10FD100023689A600022304B304D3148314CD3F883
:10FD200008802A601F69D3F81490E468C5682E49DA
:10FD3000A4B2ADB20C430D43EFF3148616F00200EB
:10FD40003ED082F31488BFF36F8F4FF0706310467C
:10FD5000DB6C9847022383F31488BFF36F8F86F31D
:10FD60001488BFF36F8F1E4A1B4BD560A2F500327B
:10FD7000D4601E4AC3F808801F61C3F81490D2F8FB
:10FD8000843043F00503C2F8843001F0CBF9184900
:10FD9000184A0B6843F002030B605378FF2B14D012
:10FDA00053780133DBB2537001F0C8F94FF40042CD
:10FDB00001200E4B10495A659A650870BDE8F8831A
:10FDC0004FF07063DB6C9847CDE701F0B7F913F0A3
:10FDD0002FFBEBE7B05F002000E002E0B45F002003
:10FDE00000ED02E000ED00E00000FA050010004028
:10FDF000346000203C600020082D0020F8B5834BC3
:10FE0000DD6C2F045D65DD6500F1908015F00A065C
:10FE100028D0D3F884207E4C22F00102C3F884203D
:10FE20005B6C180400F1D6807A4F784AD2F884309F
:10FE300043F00503C2F8843001F074F93B6843F0E5
:10FE400002033B606378FF2B00F0BF8063780133CF
:10FE5000DBB2637001F072F94FF400426B4B5A65EC
:10FE60009A659E6529074DD46B4C236813B12846CB
:10FE7000984710B9EB062ED4F8BD002601204FF0AC
:10FE80008042624B26606549C3F8B000D36A0C68B3
:10FE900043F00403D3622CB3A368DA061FD5D4E978
:10FEA0000332002110209847C8B101F03BF9584BAC
:10FEB0005A78002A00F084805A78013AD2B25A70F7
:10FEC0005B7823B9534A136823F00203136001F0EF
:10FED00035F9EB06D0D5BDE8F84013F0A9BA24688F
:10FEE000002CD9D101F01EF94D4A136843F01003DC
:10FEF000136001F023F94B4B18680028D5D000F0AF
:10FF00008DFED2E7414C01F00DF9D4F8A43023F076
:10FF10000043C4F8A430D4F8A43043F00043C4F83C
:10FF2000A43001F00BF90823A3659DE74FF40031DD
:10FF30003A4A596514685CB3A3681E0725D5D4E90D
:10FF40000332002108209847F8B1314C01F0EAF85B
:10FF5000637805F00A065BB36378013BDBB263703C
:10FF6000637823B92B4F3B6823F002033B6001F019
:10FF7000E5F8002E3FF476AF244A264FD2F88430BD
:10FF800023F00103C2F884304FE72468002CD3D15A
:10FF900001F0C8F8224A136843F00803136001F027
:10FFA000CDF8204B18680028CFD000F037FECCE702
:10FFB00001F0C4F813F03CFA002E3FF453AFDBE736
:10FFC00001F0BCF813F034FA54E701F0B7F813F07D
:10FFD0002FFA41E701F0A6F863784BB16378013B53
:10FFE000DBB26370637843B101F0A8F8094F1CE7F6
:10FFF00001F0A4F813F01CFA16E7064F3B6823F053
:020000021000EC
:1000000002033B6001F09AF80FE700BF00100040C8
:100010003C6000203460002044600020B85F002075
:10002000B45F0020B05F002070B584B001F07AF8B2
:100030002D4B1D7825B101F081F8002004B070BD72
:1000400001241C7001F07AF801A801F0ABF8274AEE
:1000500001AB132126488DF80C5001F087F80321DD
:100060004FF4826019F006F94FF0804048F20A061A
:10007000426C204B2049214D42F4801242649E651F
:100080008C650C662C66D3F8842042F00502C3F818
:10009000842001F047F81A491A4A0B6843F002031A
:1000A0000B605378FF2B1AD053780133DBB25370B7
:1000B00001F044F84FF4004210240E4B12495A65E7
:1000C0009A65D3F8A420132042F00042C3F8A4207C
:1000D000C1F8004801F048F8002004B070BD01F0FC
:1000E0002DF813F0A5F9E5E7686D0020FDFD00008F
:1000F0009C5F0020001000400020004000200240D3
:10010000346000203C6000200050004010F47F4329
:1001100008D1124BC0B21A181B5CD07FDBB2C0B240
:1001200018447047B3F5807F0BD0B3F5007F11D131
:100130000B4BC0B21A181B5CD07BDBB2C0B21844A8
:100140007047084BC0B21A181B5CD079DBB2C0B242
:10015000184470476FF00100704700BFF05F002047
:10016000C05F0020E05F002010F47F4307D1104BF8
:10017000C1EB41110B44C0B2185CC0B27047B3F57B
:10018000807F0AD0B3F5007F0FD10A4BC1EB01117C
:100190000B44C0B2185CC0B27047074BC1EBC10141
:1001A0000B44C0B2185CC0B270476FF001007047DA
:1001B000F05F0020C05F0020E05F0020034610B425
:1001C000034A044C002023605DF8044B1160704723
:1001D0003860002030600020844660B15AB1084683
:1001E00008B56146CCE90202CCF81030034800F0B3
:1001F0004FFD002008BD6FF002007047B85F00207F
:10020000042838B518D8044600F08CFF01230C49A7
:10021000A3400D680B4A2B430B60135DFF2B08D0E6
:100220000025135D0133DBB2135500F087FF28462C
:1002300038BD4FF0FF35F8E76FF00105F7E700BF75
:10024000346000203C600020042810B51AD8044611
:1002500000F068FF0D4B1A5D8AB11A5D013AD2B207
:100260001A551B5D33B901220949A2400B6823EAE4
:1002700002030B60002400F061FF204610BD4FF028
:10028000FF34F8E76FF00104F7E700BF3C6000209F
:100290003460002038B5044600F044FF14F47F4376
:1002A000054610D12B4BE4B2185D19191A5DC97FB0
:1002B000FF285FFA80FCD2B2C9B224D1284600F0F0
:1002C0003DFF002038BDB3F5807F29D0B3F5007F16
:1002D000F4D1214BE4B2185D1A19195DD27BFF28C5
:1002E0005FFA80FCC9B2D2B2E8D00CF1010C5FFA1F
:1002F0008CFC891803F804C0E0D10123A34098B214
:1003000018F0CAFFDAE70CF1010C5FFA8CFCCA4264
:1003100003F804C0D2D10123104AA3405361CDE7B2
:100320000F4BE4B2185D19191A5DC979FF285FFAFD
:1003300080FCD2B2C9B2C1D00CF1010C5FFA8CFCC6
:10034000CA4203F804C0B9D10123044AA34093610F
:10035000B4E700BFF05F0020C05F00200000024053
:10036000E05F002070B505460C4600F0DBFE15F49A
:100370007F43064612D12A4BC4EB4414EDB21C4411
:10038000615D5A195B5DD27FFF29DBB2D2B2C8B280
:1003900023D1304600F0D2FE002070BDB3F5807F3F
:1003A00025D0B3F5007FF4D11E4BC4EB0414EDB29D
:1003B0001C44625D5819595DC37BFF2AC9B2DBB288
:1003C000D0B2E6D00130C0B2C9186055E1D10123E6
:1003D000AB4098B218F060FFDBE70130C0B2D34207
:1003E0006055D6D10123104AAB405361D1E70F4B82
:1003F000C4EBC404EDB21C44615D5A195B5DD27953
:10040000FF29DBB2D2B2C8B2C3D00130C0B2D342EE
:100410006055BED10123044AAB409361B9E700BFE8
:10042000F05F0020C05F002000000240E05F00207D
:1004300070B5044600F076FE14F47F43054617D1EC
:10044000254EE1B2725C02F0FF03002A3ED0013B70
:10045000DBB220467354FFF759FE18B901231F4A37
:100460008B4013620024284600F068FE204670BDD1
:10047000B3F5807F17D0B3F5007F2AD11849E6B2D3
:100480008A5D02F0FF030AB3013BDBB220468B55C5
:10049000FFF73CFE01460028E4D10120B04080B2C5
:1004A00018F028FFDEE70F4EE1B2725C02F0FF03A6
:1004B00062B1013BDBB220467354FFF727FE0028F0
:1004C000D0D10123054A8B405362CBE74FF0FF3474
:1004D000C9E76FF00104C6E7F05F002000000240AA
:1004E000C05F0020E05F0020F8B505460C4600F034
:1004F00019FE15F47F4306461AD12A4AC4EB441468
:10050000E9B22244505C00F0FF03002844D0013BD4
:10051000DBB228465354FFF7F9FD18B90123224AEC
:100520008B4013620024304600F008FE2046F8BDE0
:10053000B3F5807F1AD0B3F5007F30D11B4BC4EBED
:100540000414EFB22344D95D01F0FF0221B3013A54
:10055000D2B22846DA55FFF7D9FD01460028E1D18D
:100560000120B84080B218F0C5FEDBE7104BC4EBA9
:10057000C404EFB22344D95D01F0FF0261B1013A36
:10058000D2B22846DA55FFF7C1FD0028CAD10123AF
:10059000054ABB405362C5E74FF0FF34C3E76FF035
:1005A0000104C0E7F05F002000000240C05F0020AF
:1005B000E05F0020F8B500F0B5FD3C4B3C4A1B68FD
:1005C0001168044611B1126812681343D9070AD49E
:1005D000384E3378012B0DD06FF00405204600F023
:1005E000ADFD2846F8BD6FF00305204600F0A6FDDE
:1005F0002846F8BD0423304A33701568002D38D0E2
:10060000AB689A0732D5D5E903320021022098471A
:1006100060B32A4A2A4B12781D78AA4298BF4FF03D
:10062000FF3E1AD80020274F00E00A46930003F14E
:10063000804303F544531B68511C9B020AD55309A0
:1006400057F8233002F01F0C23FA0CF313F0010FBC
:1006500018BF01209542E8D1F0B101234FF0FF35DA
:100660002046337000F06AFD2846F8BD2D68002D45
:10067000C6D1154D286830B10223836000F0D8FA46
:1006800000222B689A600D4A0D4B12781D78954216
:1006900005D34FF0000EC5E7BEF1000FDDD14FF0DE
:1006A00080434AF2A5529A60D7E700BF3460002029
:1006B00030600020082D0020B85F0020C12102001A
:1006C000C02102004C300240B05F002072B64FF0F3
:1006D0008042D36A43F00103D362FEE74FF08043C8
:1006E000186B20F40040562832D856282DD8DFE861
:1006F00000F02E2E2E2C2E2C2E2C2C2E2C2C2C2C96
:100700002C2C2C2C2C2C2C2C2E2C2C2C2C2C2C2C27
:100710002C2C2C2C2C2C2C2C2E2C2C2C2C2C2C2C17
:100720002C2C2C2C2C2C2C2C2E2C2C2C2C2C2C2C07
:100730002C2C2C2C2C2C2C2C2E2C2C2C2C2C2C2CF7
:100740002C2C2C2C2C2C2C2C2E004FF0FF307047F6
:10075000B0F5003FFBD0B0F5403F18BF4FF0FF3081
:10076000704700BF4FF080430122DA60704700BF3E
:1007700070B5012002241E4B1E4A1F49C3F8C04019
:10078000C3F89000116000F0CDFC1C491C4A0B68B6
:1007900023430B605378FF2B25D053780133DBB212
:1007A000537000F0CBFC00F0BDFC114B5A6C12F4FE
:1007B000004214D101214FF4807440F202264FF41C
:1007C0000075C3F81062C3F81C12C3F8C410C3F854
:1007D0001852C3F800225C65C3F800129C65BDE89E
:1007E000704000F0ABBC00F0A9FC12F021FEDAE78B
:1007F000001000404460002035FC00003460002000
:100800003C600020344BD3F84031DA0760D4334BDE
:1008100098420BD0324B984249D0A3F18B73A3F589
:10082000A633984233D06FF0010070474FF09C42DE
:1008300092F85303B2F8523392F852232949C0F385
:100840004000C3F3431302F01F025B0110B443EAFC
:100850004023254C1343204A6382D2F8443103F0ED
:1008600040430B43C2F84431D2F8403143F0050312
:10087000C2F84031936C1B03FCD5D2F84431002000
:1008800043F000435DF8044BC2F8443170474FF029
:100890009C4292F85103B2F8503392F85023134916
:1008A000C0F34000C3F3431302F01F02CDE74FF043
:1008B0009C4292F85503B2F8543392F854234FF007
:1008C000FA61C0F34000C3F3431302F01F02BCE718
:1008D0004FF0FF30704700BF00100040002062055D
:1008E0000000DC05E9DE8008001100409A999909B2
:1008F000064BD3F8442122F00042C3F84421D3F838
:10090000402122F00102C3F840217047001000404E
:10091000B0F5803F09D200F47F43B3F5807FC0B2C9
:100920000FD0B3F5007F07D00BB1002070471E2811
:100930008CBF0020012070470E288CBF00200120B2
:10094000704706288CBF00200120704710B500F0CA
:10095000E9FB0022034B1C681A6000F0EFFB204605
:1009600010BD00BFB45F0020064A08B5106010B18A
:10097000054B1B680BB9002008BD00F04FF90020A3
:1009800008BD00BFB05F0020B45F00202DE9F04734
:10099000074686B0EFF39085012383F39088EFF349
:1009A000108683F31088644C644A2168136813B17D
:1009B00013681B681943624B5B68C3F3083343B188
:1009C00086F31088002785F39088384606B0BDE886
:1009D000F08701F00400890720D50028F0D186F3C4
:1009E0001088EFF3908C012787F39088554E544878
:1009F0002368116811B1116809680B4313F00401F1
:100A000004D11B0754BFB764B16430BF4368C3F35C
:100A10000833002BECD08CF39088D3E74A49D1F807
:100A2000C03003F00303012B68D06FF4FA78DFF8CD
:100A300038C14649DCF80431FB1A43448B42CCD818
:100A4000434A44491369684623F00103136118229D
:100A5000DCF84440DCF8448118F0A0FC042140F2AA
:100A6000444018F007FC202000F070FBDFF8FC90F9
:100A7000394B963F5F62D9F80070002F46D0BB68B3
:100A8000D90740D5D7E90332002101209847002833
:100A900039D001224FF0FF37304B1A7001222E4B14
:100AA0002F49DA6020205A650B6800F04FFB2321A4
:100AB00040F24440DFF8B0A018F0DCFBDAF8403137
:100AC00003F01103012BF9D169461822214818F0CF
:100AD00065FCCAF84481CAF8444018F039FCD9F8DA
:100AE0000040D4B1A3685A0714D5D4E903320021D9
:100AF0000420984770B186F3108864E78B6C9B03E1
:100B00007FF55EAF91E73F68002FB8D1FFF7F6F8A9
:100B10000027C3E72468002CE4D1124C2068002889
:100B2000E9D00423836000F083F8002223689A60F0
:100B300086F3108847E700BF346000203060002053
:100B400000ED00E000000240001000400AFEBFFF80
:100B500000E002E04C21024000200040082D00206F
:100B600000300040B05F002000200240B85F00204D
:100B700070B4EFF3908C012686F390880D4C0E49EB
:100B80000E4D0F4823680A6812B10A6812681343B1
:100B900013F0040204D11B0754BFAE64AA6430BF33
:100BA0004368C3F30833002BECD08CF3908870BCFF
:100BB000704700BF34600020306000200000024019
:100BC00000ED00E040F661010C4A08B50C48D2F88F
:100BD000183103400B43C2F81831D2F81C310340DE
:100BE0000B43C2F81C31FFF71FFAFFF7C1FD4FF0AE
:100BF0008042536943F00103536108BD0010004077
:100C000000F0FFFF08B511F0E9FC11F04DFF4FF0C7
:100C100000414FF0FF3018F059FCF8E7034601227D
:100C200002491A73086820F091BB00BF80140200CB
:100C30000346002210B50469806824F001041A7389
:100C400064086400214622462346B7EE000AF7EE08
:100C5000000AB7EE001AF7EE001AB7EE002AF7EE18
:100C6000002AB7EE003AF7EE003AB7EE004AF7EE88
:100C7000004AB7EE005AF7EE005AB7EE006AF7EEF8
:100C8000006AB7EE007AF7EE007A20F005FF10BD9B
:100C900038B505460C4600F045FA00226B68C4E9F9
:100CA00000232BB11C606C60BDE8384000F046BAF0
:100CB0002C606C60BDE8384000F040BA38B50C4696
:100CC000054600F02FFAD4E9002332B153603BB15E
:100CD0001A60BDE8384000F031BA6B60002BF7D1E4
:100CE0002A60BDE8384000F029BA00BF38B5036873
:100CF0000C465B7E9BB10B4D20462C680FF064F8D0
:100D00002B68196AE06129B1084608F01FFF00222C
:100D10002B681A621846BDE83840FFF77FBF02F023
:100D200053F8E8E74860002038B503680C465B7E5E
:100D30009BB10B4D20462C680FF046F82B68196AC2
:100D4000E06129B1084608F001FF00222B681A6211
:100D50001846BDE83840FFF761BF03F03BFBE8E70A
:100D60004860002038B503680C465B7E9BB10B4D94
:100D700020462C680FF028F82B68196AE06129B129
:100D8000084608F0E3FE00222B681A621846BDE808
:100D90003840FFF743BF04F08DFCE8E748600020CF
:100DA00038B503680C465B7E9BB10B4D20462C6822
:100DB0000FF00AF82B68196AE06129B1084608F0BB
:100DC000C5FE00222B681A621846BDE83840FFF7BE
:100DD00025BF04F06FFCE8E74860002038B50368E1
:100DE0000C465B7E9BB10B4D20462C680EF0ECFF51
:100DF0002B68196AE06129B1084608F0A7FE0022B5
:100E00002B681A621846BDE83840FFF707BF04F0A8
:100E100063FEE8E74860002038B503680C465B7E57
:100E20009BB10B4D20462C680EF0CEFF2B68196A43
:100E3000E06129B1084608F089FE00222B681A6299
:100E40001846BDE83840FFF7E9BE05F0B7FBE8E714
:100E50004860002038B503680C465B7E9BB10B4DA3
:100E600020462C680EF0B0FF2B68196AE06129B1AA
:100E7000084608F06BFE00222B681A621846BDE88F
:100E80003840FFF7CBBE06F0CBF8E8E7486000201B
:100E900070B5114D044608462E680EF07DFF2B6894
:100EA000196AF06129B1084608F050FE00222B684B
:100EB0001A62226892F8D52022B1BDE87040184627
:100EC000FFF7ACBE204606F0F7FB2B68BDE870408C
:100ED0001846FFF7A3BE00BF4860002070B5044667
:100EE0000846A3F10201B1FA81F1104D49092E68BB
:100EF0000EF0F2FE2B68196AF06129B1084608F07D
:100F000025FE00222B681A62226892F8CD2022B1B9
:100F1000BDE870401846FFF781BE204606F0DEFFB0
:100F20002B68BDE870401846FFF778BE4860002087
:100F300070B504460846A3F10301B1FA81F1104DE2
:100F400049092E680EF0F6FE2B68196AF06129B186
:100F5000084608F0FBFD00222B681A622268127A0C
:100F600022B1BDE870401846FFF758BE204607F092
:100F7000B7FB2B68BDE870401846FFF74FBE00BFB7
:100F80004860002070B5114D044608462E680EF0EA
:100F900097FE2B68196AF06129B1084608F0D6FD62
:100FA00000222B681A62226892F8F82022B1BDE86C
:100FB00070401846FFF732BE204608F09DF82B68B7
:100FC000BDE870401846FFF729BE00BF486000200A
:100FD00010B54FF4A05201230024084888B00590B2
:100FE000074908480291079001A902A8CDE90332F8
:100FF00006940EF093FD08B010BD00BF0906000670
:10100000127100015D81FF7F00234FF4C072F0B5C3
:1010100087B0CDE90032CDE90233CDE90433FFF7E3
:10102000D1FD08F029FD002861D100F0F3F8002877
:101030006AD10EF023FE002863D16946364809F0D4
:101040004DFE002856D14FF0004018F087FA4FF0BF
:10105000005018F083FA4FF0804018F087FA2F4CB8
:101060002F4E4FF000414FF0FF3018F02FFAC3061B
:101070000FD52146102018F031FA236853B345F6F6
:10108000F022934208D06FF08001606818F046FAB1
:10109000E7E718F04BFAE4E7D4E90153002B37DA1D
:1010A0002369042B34D132460021284618F01EFA59
:1010B00003461722042B4FF0AC0130680CBF002709
:1010C0006FF0800720F0E0FB08B33946284618F09F
:1010D00025FAC6E7A068C00F09F0CEFD2046656876
:1010E00008F0EAFD0146284618F018FAB9E718F0AA
:1010F0001DFA9AE7FFF76CFF0028A4D018F016FA43
:10110000A1E718F013FA98E718F010FA91E73060A9
:101110006FF08007D9E700BF5D81FF7F4C60002042
:1011200048600020EFF39080EFF31083012282F3F8
:10113000908872B643EA0020704700BFC30700D40E
:1011400062B6000A80F39088704700BF20F030B983
:1011500020F0E4B8034B53F8203013B1D3E9012059
:10116000104770477C60002020F0C0B810B50446DE
:1011700048B153B118681B7AC4E90120084A2160BC
:1011800042F821403BB9204610BD0548626040F856
:101190002140A3602160084620F0A8F8204610BD39
:1011A0007C60002030B100214FF0FF32012301604C
:1011B00042600372704700BF00B5EFF39083EFF316
:1011C000108C4FF0010E8EF3908872B61CF0010F58
:1011D000C0E901124CEA032300D162B61B0A83F373
:1011E00090885DF804FB00BF20F0B0B8704700BFE6
:1011F0004FF0FF3108B503480EF0C0FEB0FA80F0A2
:10120000400908BD4861002001480EF0C1BE00BF82
:101210004861002038B5174D2B7813B100242046C3
:1012200038BD00F057FA00F061FB0146D8B900F074
:101230005BFDD8B119F02EFD044600F07DFD002CB9
:10124000EDD118F0BBF970B90B4C94F8503013B1D4
:1012500001232B70E2E7012120460EF089FE0123D5
:1012600084F85030F4E76FF08304D8E76FF0F904A6
:10127000D5E700BF696D0020486100202DE9F043EB
:10128000204F0446894687B04FF0FF313846164656
:1012900098460EF073FE48BB012387F8513046B3E1
:1012A000054605A92046C8F800501AF0F7FB044689
:1012B00058B110F1FA0F87F8515017D038460EF098
:1012C00067FE204607B0BDE8F08301460F9B0E9AEB
:1012D0000598CDF808800196CDF800901AF010FF1F
:1012E00010F1FA0F044687F85150E7D16FF0F90476
:1012F000E7E738466FF0890487F851600EF048FE42
:10130000DFE700BF486100202DE9F04F00240746C9
:101310004FF4C075454E8DB0884630464FF0FF31D2
:1013200091469A46CDE90844CDE90A44D7F808B079
:101330000795069404940EF021FE68B90123054632
:1013400006A9584686F851301BF01AFF10F1FA0F23
:10135000044686F8515005D16FF0F90420460DB0CF
:10136000BDE8F08F30460EF013FE002CF6D106A833
:101370000EF0F6FE054606A80EF0EEFE3B78040AD7
:10138000082B20D02CBB179B4A460193169B414645
:101390000093584604ABFFF771FF04460028DDD1E7
:1013A000002DDBD005F11F03049A5B090133B2EB7A
:1013B000830FD3D0B2EBC30FD0D07B689A4218BF53
:1013C0006FF08304CAE7002CDDD0194B169A9A42BD
:1013D0001AD1012C26D14FF0FF3114480EF0CEFD6A
:1013E0000028B9D1584605A986F851401AF056FB95
:1013F000044660B1002314F1FA0F86F85130ABD0E7
:101400000A480EF0C5FDA9E76FF08404A6E7CDE910
:101410000100DDE916230090514605981AF070FE90
:101420000446E7E76FF0850498E700BF48610020B5
:101430000001500500234FF4C072F0B52A4E89B068
:1014400007464FF0FF313046CDE90232CDE9043393
:10145000CDE906330EF092FD002839D1012305466F
:1014600002A9384686F851301BF08AFE044690B92E
:10147000039B1A0A012A2ED1DBB2802B16D002A8B8
:101480000EF06CFE10F0040510D1384601A91AF0D8
:1014900005FB044698B114F1FA0F86F8515017D0A5
:1014A00030460EF075FD204609B0F0BD00230E4811
:1014B00086F851300EF06CFD204609B0F0BD019861
:1014C0001AF042FC10F1FA0F044686F85150E7D1A9
:1014D0006FF0F904E7E7304686F851400EF058FD0A
:1014E0006FF08604DFE700BF48610020F8B5104DBB
:1014F00006460F4628464FF0FF310EF03FFD68B913
:10150000012304463946304685F851301BF038FE39
:1015100010F1FA0F85F85140044603D16FF0F90439
:101520002046F8BD28460EF033FD2046F8BD00BF2A
:101530004861002030B41B491B4C1C4A012808BFDD
:101540002146536843F00403536002F52022D2F889
:10155000003FD807FBD44FF017450120144B154C22
:101560001D605C609960C2F8000FD2F8003F9A07D6
:1015700009D40E4A1049536843F008035360D1F868
:10158000003F9B07F7D530BC02210B4B0848074AA8
:101590000068C3F8001F5368C01723F004035360AA
:1015A000704700BF04000200140002000030054034
:1015B00000000F4047365A4F00300F4010B51DF065
:1015C0003BFD04462920FFF7C1FD2920FFF7C0FDA0
:1015D00021460E481DF004FD00200D4A0D4992F8E9
:1015E00000320870022B0BD0012B00D010BDD2F8B6
:1015F0000432002BFAD0BDE81040D2F80802184798
:101600000548BDE810400EF0C3BC00BF10350020F7
:10161000103400206A6D0020EC610020F0B5DFF886
:10162000B0E064209EF800304FF0A057012B0CBFB3
:101630004FF0140C4FF0040C01260224214A2249D9
:10164000224DD2F8003F13F00103FAD10F604D6034
:10165000C1F808C0CB60C2F8006FD2F8003F9B070A
:10166000FBD50B68C2F8004FB3F1807F28D3013857
:1016700080B20028E5D113498EF80040D1F8003F30
:1016800013F00103FAD14FF0A055042201240E48B3
:1016900005600E4D456082600A4AC360C1F8004F84
:1016A000D2F8003F9B07FBD5022307490868C2F820
:1016B000003FB0F1807F4FF0FF3038BF0020F0BD19
:1016C0000020F0BD00300F4000000F4047365A4F59
:1016D000092D0020F0B585B0FFF724FD124E044619
:1016E000357825B12046FFF729FD05B0F0BD4FF054
:1016F000FF3701A8FFF756FD0C4A01AB29210C4822
:101700008DF80C500297FFF731FD0EF0BBFC0EF088
:101710008BFC294607480EF02BFC01232046337032
:10172000FFF70CFD05B0F0BD6B6D0020BD1501008D
:10173000D8610020EC610020164803780BB9002026
:10174000704770B4144AD2F8003FD907FBD44FF069
:101750009E460124114B124D0F491E605D60C2F878
:10176000004FD1F8003F9B07FBD50C4B1B68002BAB
:101770000DDB022410230B4AC1F8004F536213699A
:1017800013F01003FBD10370002070BC70474FF0C2
:10179000FF30FAE70A2D002000300F4000000F4014
:1017A00047365A4F00000240012804D0043818BFC1
:1017B0004FF0FF30704708B5FFF7BEFF003818BF85
:1017C0000120404208BD00BF70B53D4C82B020787A
:1017D00000285FD110203B493B4AD1F8FC3323F469
:1017E000E06323F0010343F4C06343F00103C1F855
:1017F000FC3390611369D806FCD540204FF00045BA
:101800000021324B324A334EC3F8106F556050609E
:10181000D3F8002F304842F00402C3F8002FC3F879
:10182000081FD3F8102F22F08802C3F8102F1DF0E4
:1018300025FA40B1FF250323012269460095ADF842
:1018400004301DF0BDFE01232370204AD2F8003F72
:10185000D907FBD44FF0BE460120204B204D1B4939
:101860001E605D60C2F8000FD1F8003F9B07FBD5FA
:101870001C4A1A4B12781B68022A03F07F431CD0C3
:10188000012A0FD04FF0FF300222104BC3F8002F77
:1018900002B070BD0128D8D0023818BF4FF0FF3019
:1018A00002B070BD2BB1B3F14A4F02D0B3F14C4F2F
:1018B000E8D1022300202370E6E7002BE2D1F8E70D
:1018C0000A2D0020004002400000024000300F407E
:1018D00000300540FCFCFFFF8814020000000F40B0
:1018E00047365A4F092D0020002070472DE9F0415E
:1018F000794C267826B1794B1D682846BDE8F081E1
:10190000FFF710FC242231460546754817F084FD88
:101910001021744AD2F8FC3323F4E06323F001036E
:1019200043F4C06343F00103C2F8FC33A2F58042E4
:1019300091611369D906FCD54FF000464020002183
:10194000694B6A4A6A4FC3F8107F56605060D3F8FB
:10195000002F42F00402C3F8002FC3F8081FD3F889
:10196000102F22F08802C3F8102FD3F8E02F8A42FC
:1019700047DBD3F8E02F12021CD52846FFF7DEFB29
:10198000002301215B4A5C48FEF726FC4FF482707D
:10199000FEF780FC1DF01EFB064600283AD04FF0F3
:1019A000FF331D464D4A13600122544B28461A70DE
:1019B000BDE8F081D3F8002FD707FBD44FF04F409C
:1019C00001214F4A10604F48506002F54052C3F861
:1019D000001FD2F8003F9E07FBD5494B1B68002B28
:1019E0005EDB0220484B4049C2F8000F01E0013B9A
:1019F00007D0D1F8E02F1002F9D5FFF70FFE00282D
:101A0000BBD04FF0FF33354C28462360FFF796FBE1
:101A10002568C9E70EF024FB28B96FF003032F4AAD
:101A20001D461360C0E7394F4FF480723146384687
:101A3000C7F8086217F0F0FC4FF480723146B8180E
:101A400017F0EAFCFFF7C0FE054620B1C7F80862B0
:101A50000EF012FBE1E70120FEF7D2FB224AD2F89A
:101A6000003FD907FBD40121254B29481E4E1860A1
:101A700028485860C2F8001FD6F8003F9B07FBD5E6
:101A80001F4B1B68002B0FDA02220023C6F8002F21
:101A9000C7F808320EF0F0FA0120FEF7D5FB7EE71A
:101AA0000223C2F8003FACE724221B490C4817F080
:101AB00075FC4FF000080223C7F80882C6F8003F03
:101AC0000EF0DAFA0120FEF7BFFB0123034A237070
:101AD000C2F8008068E700BF6C6D0020B061002094
:101AE000B46100200040024000300F40003005404B
:101AF000FCFCFFFFA91701009C610020092D0020BC
:101B000000000F4046577203FFFF0F001034002003
:101B10000000030F47365A4F04000F4070B56A4B60
:101B200084B01B78002B74D00022684B5B89039231
:101B3000180503D50025284604B070BD03A8FBF79F
:101B4000BFFC10B9039B002BF4D14FF0FF300EF017
:101B500087FA002835D15E4E4FF0FF300EF0B2FA12
:101B60005C4B64241D7800E0CCB12846FFF7E2FC12
:101B7000013CA4B20028F7D101900EF0AFFA019811
:101B8000C6F808020EF078FA0120FEF75DFB00208F
:101B90000EF066FA00283FD16FF00305CBE7022074
:101BA000FFF7C8FC05460EF099FAC6F808420EF099
:101BB00063FA0120FEF748FB002DE8D0284604B068
:101BC00070BD0024424E4FF4807221463046C6F864
:101BD000084217F021FC4FF480722146B01817F02C
:101BE0001BFCFFF7F1FD18B90120FEF709FBB3E775
:101BF000C6F808420EF040FAAEE702210023364A4A
:101C0000C2F8001FC6F808320EF036FA0120FEF7BF
:101C10001BFB4FF0FF358EE700244FF48072214606
:101C20002B48C6F8084217F0F7FB4FF480722146A4
:101C30002A4817F0F1FBFFF7C7FD20B1C6F80842AC
:101C40000EF01AFAA8E70120FEF7DAFA224AD2F8D3
:101C5000003FD907FBD401234FF03C5020490860D6
:101C6000C2F8003FD2F8003F9A070AD41D4A01F596
:101C70004051536843F008035360D1F8003F9B077D
:101C8000F7D5174B1B68002BB7DB02210023124A44
:101C9000C2F8001FC6F808320EF0EEF90120FEF778
:101CA000D3FAFFF7BBFC054600287FF444AF03A836
:101CB000FBF706FC054600287FF43DAF039DB5FA0F
:101CC00085F56D096D4236E76C6D0020B46100202A
:101CD00010340020092D002000300F401035002066
:101CE00000000F400030054070B50D460EF0B8F909
:101CF00010B90024204670BD0E4E4FF480720021B2
:101D000004463046C6F8085217F086FB4FF480723E
:101D10000021B01817F080FBFFF756FD20B9012015
:101D2000FEF76EFA204670BD0023C6F808320EF0AA
:101D3000A3F9DEE710340020002208B5044BC3F8F5
:101D400008220EF099F9BDE808400120FEF77CBAA0
:101D50001034002038B5204D204B2D781C68022D02
:101D60002BD104F07F44B4F1A05F32D0D3F8084205
:101D700094422ED1042883F80002C3F804124FF0D5
:101D8000290014D0FFF7E2F92920FFF7EDF9FFF75A
:101D9000C9F9054611481DF01FF9044680B9012212
:101DA0000F4B28461A70FFF7C9F9204638BDFFF7D8
:101DB000CDF92920FFF7CCF9E9E76FF00204F4E749
:101DC0002846FFF7BBF92920FFF7C0F92920FFF7C4
:101DD000BFF94FF0FF34E8E70A2D0020103400204F
:101DE0006A6D002010B5184C94F80032022B1BD0FD
:101DF000042B04D0012B15D04FF0FF3010BD04F59B
:101E000080701DF021F90022104B0E301A7017D08F
:101E100094F80032042B10D1D4F8043213B1D4F862
:101E200008029847002010BD4FF0FF3108480EF01F
:101E3000A5F894F80032042BEED0022BECD0F1E799
:101E40006FF0010010BD00BF103400206A6D00204B
:101E5000EC61002070B5144EFFF764F93478FCB1E2
:101E600005462920FFF772F92920FFF771F9284666
:101E7000FFF764F90D481DF0E7F800250E300CBFA0
:101E80006FF001042C4635700EF028F9084BC3F8AA
:101E900008520EF0F1F80120FEF7D6F9204670BD89
:101EA000FFF74CF9204670BD6A6D00201035002008
:101EB00010340020104B10B5D3F80031002B4FEA3E
:101EC000136403F4803207DA04F07F0464427AB1C9
:101ED0009B0305D4204610BD9B0344EA0204F9D5B8
:101EE000FFF79CFB002818BF6FF01E04204610BDB2
:101EF00024F48034ECE700BF10340020014BD3F809
:101F0000040170471034002003460A4601480221AC
:101F10001DF0B6BA103500200A46014917F03EBA46
:101F20002835002003461022022101481DF0A8BADE
:101F30001035002003460A46014802211DF0A0BAD0
:101F40001035002030B44FF08E450024034B1D6047
:101F50005C61C3E9032130BC9860704710340020F5
:101F6000D0B40F4606464FF0B8540021054BC2F3DB
:101F70000902C3E902671C601A6159619961D0BC0A
:101F8000704700BF1034002010B44FF0000C4FF029
:101F90001C540A4BC1F3090141F000611C60186137
:101FA0005DF8044B9A60C3F814C0C3F818C0C3F8B6
:101FB0001CC0C3F820C0D960704700BF1034002097
:101FC0004FF05C52014B98601A607047103400204B
:101FD00001290CD15AB910B44FF02744054B986031
:101FE0001C601046C3E903125DF8044B70474FF0C4
:101FF000FF30704710340020F8B590F8F7300446F1
:102000005A1ED2B2022A2DD8284901338E5C03F021
:10201000010294F8F6302068D4F8E470D4F8EC109B
:1020200003F00F0308B3C81C20F003000AB943F003
:1020300010034FF0985C00221D4DC5E9021768613E
:10204000C5F800C02A610EB943F02003AB61D4E9A2
:1020500001322A6203B1EB610023D4F8D420C5E930
:102060000A23F8BD01263246D3E70AB943F010032C
:102070004FF0905000220E4DC5E9021769612860AB
:102080002A610EB943F020030026AB6104F10C0273
:10209000D4F8F0300E210648EE611DF0BDF90023A2
:1020A000D4F8D420C5E90A23F8BD00BFD814020033
:1020B0001034002002464FF0C853F0B51B480024EE
:1020C000036092F8BA30B2F8B6C0022B0CBF0726F4
:1020D00006260CF11F0C164DB2F8B8304FEA5C1C06
:1020E0005FFA8CFE0CF1010C073305EACC4CD2E907
:1020F0000175C0E9064CC0E90844C462C3F3C704D3
:102100000EEB0E2E44F0804446EA0E46C46002F107
:10211000140445618660076184620C21BDE8F040CB
:10212000D2F8C820DB081DF077B900BF10340020BA
:102130000000FF0F70B4037FC46A022B4FF0000150
:10214000C38908BF066B856B0CBF002400264FF0C7
:10215000C8501F33C3F3471303EB0323084A1B0480
:1021600043F00103C2E904659461C2E9071170BC40
:10217000C2E9091193601060D160D162704700BF5D
:10218000103400204FF0C85290F80CC00021BCF170
:10219000080F0CBF4FF02A0C4FF0160C0E4B10B46A
:1021A0001A60C2890D4C1F32C2F3471202EB0222A1
:1021B0004CEA02429A60C26AC3E90711C3E90911F5
:1021C000DC60D962446B016B1A61826B1C63C3E9EA
:1021D00005215DF8044B7047103400200401008095
:1021E00038B5124C05464FF480720021204617F096
:1021F00013F94FF480720021A01817F00DF94FF475
:10220000101200234FF0C8510948E26105F1500255
:10221000C4E90833A060E360A86AA262EA6AE362E4
:102220002B6B20612160A261636138BD10340020F6
:102230002B00080838B5134C05464FF48072002176
:10224000204617F0E9F84FF480720021A01817F02B
:10225000E3F800234FF0C8520B49E360A160A96A7C
:10226000C4E90933E362B5F848302161C3F30B03D5
:10227000E3612B6B226063616B6BA3616B6C236208
:1022800038BD00BF103400202D000808F8B50E4CF2
:102290000D460646174600214FF48072204617F07F
:1022A000BBF84FF480720021A01817F0B5F8002396
:1022B0004FF0905223613523C4E90256C4E9055317
:1022C000E7612260F8BD00BF1034002038B5154C1E
:1022D00005464FF480720021204617F09DF84FF418
:1022E00080720021A01817F097F800234FF0C85211
:1022F0000D49E360A1606362E96AE362B5F84830C2
:102300002161C3F30B0343F49003E36105F1500330
:10231000A3622B6B226063616B6BA3616B6C2362A6
:1023200038BD00BF103400203000080870B50546E5
:10233000134C4FF48072002120462E6917F06CF880
:102340004FF480720021A01817F066F8F368686CEB
:102350002363AB6B0821A361B5F848304FF0C85236
:10236000C3F30B03C4E9073000230648C4E9043370
:10237000C4E9020122606362A362E362636370BD29
:1023800010340020310008082DE9F047044682B0DF
:10239000E76F8946904600214FF480724F4817F04E
:1023A0003BF84FF4807200214D4817F035F87B1E42
:1023B0000E2B237998BF1027222B00F08480282B26
:1023C00019BF6FF00F0A0026A668A6F1100A4FF099
:1023D0008072424D4FEA09332A60626A43EA482319
:1023E00043F48043EA60A26A43F07003AA61226A60
:1023F000EB62D4F88C306F612F626A62AB60B9F126
:10240000000F02D0D4F8F4302B63B8F1000F5ED087
:10241000D4F8F4306B6394F89830012B12D0082B69
:102420000BD8012202FA03F313F4AA7F07D094F821
:102430009920216B2B4816F0B1FFEA6A05E013F0F2
:10244000A80FFAD0EA6A42F40042BAF1100F8EBF28
:102450000021254B53F82A1094F899301B0603F0FD
:10246000F85313430B43EB622379222B25D0D4F886
:10247000F020D4F8F8300192C3B104221B480DEBD0
:10248000020116F08BFFEB6A43F48073EB624FF0AE
:102490008072D4F88810D4F8F43069662A6413B1D5
:1024A000D4F88030AB6602B0BDE8F087324604F164
:1024B0009B010E4816F072FFE9E73246A1680B480F
:1024C00016F06CFFE3E7E668A6F1100A7FE794F8E0
:1024D0009A20E16A064816F061FF9CE7103400205C
:1024E000103500209434002094140200543400204D
:1024F000443400202DE9F047044682B0E76D894658
:10250000904600214FF48072544816F085FF4FF436
:1025100080720021524816F07FFF7B1E94F804C0A1
:102520000E2B98BF1027BCF1220F00F08D80BCF15C
:10253000280F19BF6FF00F0A0026A668A6F1100A2F
:102540004FF08073454D4FEA09322B60636A42EACF
:102550004822EB60A36A42F48040AB61236A40F0FA
:1025600050006B62E36E6F612F62AB60E862B9F19D
:10257000000F02D0D4F8E4302B63B8F1000F02D082
:10258000D4F8E4306B6394F87C30012B48D0082BEE
:102590000ED8012101FA03F313F4AA7F3DD094F879
:1025A0008020216B2F4816F0F9FEE86A94F804C0E9
:1025B000BAF1100F8CBF00212B4B94F8802098BFEC
:1025C00053F82A1094F8813012061B0503F47003A7
:1025D00002F0F852134303430B43BCF1220FEB62AA
:1025E00036D0D4E93A230192FBB104221F480DEB07
:1025F000020116F0D3FEEB6A43F48073EB6294F8A9
:102600008120E2B9A26ED4F8E4306A6613B1D4F83E
:10261000D430AB6602B0BDE8F08713F0A80FC7D086
:1026200042F4404040F05000C2E732460F4804F107
:10263000820116F0B3FE94F88120002AE2D0E16A0C
:102640000B4816F0ABFEDDE7E668A6F1100A77E767
:102650003246A168054816F0A1FED0E710340020EC
:1026600010350020943400209414020054340020CB
:10267000843400202DE9F043036A90F804C0DF6839
:10268000BCF1220F07F1030683B026F00306D3E95D
:1026900001893FD0BCF1280F31D090F8285005F0C7
:1026A000FB03022B4BD06FF00F020023043D18BF39
:1026B0000125ED034FF0807E254C102AA760C4F859
:1026C00000E005D8DFF890E05EF8222045EA0245F8
:1026D000BCF1220FE56221D0426C0192826C1ABBE0
:1026E0001A461C4816F05AFE0023C4E90579C4F8BE
:1026F0000C8026622361E36103B0BDE8F083836848
:10270000A3F1100290F8285005F0FB04022CCDD163
:102710000025CFE7C368A3F11002F3E70A460C488F
:1027200011211CF079FEDFE704220A480DEB0201BB
:1027300016F034FEE36A43F48073E362D4E70023C7
:102740004FF08072024CA7602260E362C4E700BFD2
:102750001034002054340020DC1402002DE9F04134
:10276000866B044600790F3626F00F062228B04605
:1027700082B047D028283AD094F8485005F0EF03AB
:10278000022B54D06FF00F020023222D48F22007B5
:1027900008BF20274FF0807C294D102AAE60C5F875
:1027A00000C005D8DFF8A0C05CF8222047EA024745
:1027B0002228EF622AD0226D0192626D62BB1A4616
:1027C000204816F0EBFD04F1200210230D211C48D7
:1027D0001CF022FED4E90C32EB6000236E61AA618A
:1027E000C5F820802B61EB6102B0BDE8F081A368E1
:1027F000A3F1100294F8485005F0EF07022FC4D15E
:102800002027C7E7E368A3F11002F3E70A460C4864
:1028100011211CF001FED6E704220A480DEB02014B
:1028200016F0BCFDEB6A43F48073EB62CBE74FF02C
:102830008073034D2B602023AE60EB620023BAE768
:102840001034002054340020DC140200F0B5476C32
:1028500090F804C0FE1CBCF1220F044683B026F0A1
:10286000030646D0BCF1280F38D090F8400000F0A5
:10287000FB03022B52D06FF00F0E0023042848F206
:10288000100008BF10204FF08072294DBEF1100FCC
:10289000AF602A6004D8274A52F82E2040EA02404E
:1028A000BCF1220FE86228D0E26C0192226D52BB8B
:1028B0001A46214816F072FD04F1200210230D2162
:1028C0001B481CF0A9FDD4E90C32EB6000236F61BA
:1028D000AA612E622B61EB6103B0F0BD8368A3F1A6
:1028E000100E94F8400000F0FB02022AC6D110201E
:1028F000C9E7C368A3F1100EF3E70A460C4811219B
:102900001CF08AFDD8E704220B480DEB020116F0FB
:1029100045FDEB6A43F48073EB62CDE74FF08073C3
:10292000034D2B601023AF60EB620023BCE700BFB8
:1029300010340020DC14020054340020F8B50546A1
:102940000C46164600214FF4807223482F6D16F076
:1029500063FD4FF480720021204816F05DFD95F86C
:102960004930022B2B6D1ED00F2B25D908224FF09A
:10297000000C4FF09851184B84F0010486F00106CA
:10298000240144EA46141960E96C1443082AD9600A
:102990009C61D5E915019F60C3E907015F6108BF2C
:1029A000C3F828C0F8BD0F2B4FF0090210D8C7F1AB
:1029B000100C4FB11027DCE78021EA6CC7F1100C36
:1029C000D1540822002FF5D167464FF00F0CD0E705
:1029D0004FF0000CCDE700BF103400201035002070
:1029E00010B400224FF08064044B89B21C60C3E92C
:1029F00003025DF8044B9960704700BF103400205B
:102A000000234FF4C07270B5046890B005460146CB
:102A10002068CDE90232CDE90433CDE90633FFF772
:102A200063F9002857D02379222B39D0282B55D190
:102A300094F8403003F0FD02012A15D0052BE06820
:102A400002A914BF4FF400764FF48076FEF74EFDD6
:102A500090B188300CBF6FF004046FF00504FFF7ED
:102A60006BF9204610B070BDE06802A94FF4807683
:102A7000FEF73CFD0028ECD120221B4B0196009371
:102A80000DEB020104F14C03201DFEF73DFC002874
:102A9000DFD102A80DF060FB000A08A9206500E064
:102AA000A1682046FFF7D2FE20680DF00BFB80B135
:102AB0002A460E49207EFFF74DF930B9FFF792F90B
:102AC00018B96469204610B070BD0DF007FB0024F2
:102AD000C5E7FFF731F96FF00104C2E7FFF72CF902
:102AE0006FF00604BDE700BF00404004712C0100F8
:102AF0002DE9F04104681E4623790546022B0F4656
:102B000090468AB027D0082B40F09F8094F8403040
:102B100003F0FD02012A1BD0052B14BF4FF40073F4
:102B20004FF4807301934A4B2022009302A904F1D1
:102B30004C03201DFEF7E8FB00285DD0883014BF51
:102B40006FF005066FF0040630460AB0BDE8F0816C
:102B50004FF48073E6E7102E04F1040071D03D4974
:102B60000DF092FD3C4804F1200114F099FE237E03
:102B7000042B01D00F2E5DD83346204642463946FD
:102B800003F0ACFD2C6894F84030012B24D0227E59
:102B9000E16B042A896801D00F2924D8052B35D090
:102BA0002E4B1A6F22625A6F62629A6FA262DB6FBB
:102BB000E362204666690DF0F3FD237E012BC3D14D
:102BC00028463146A56B94F84030E26BA8470026B2
:102BD00030460AB0BDE8F081227E042A16D0E36BAD
:102BE0001B690F2B12D9022AF1D14FF0FF311C487B
:102BF0000DF0C4F96669A7E71A4802A914F050FE5F
:102C0000102E164B0CD0134ADA62ABE710230022C9
