:10D10000380C0020012302006D2202008180020001
:10D110008D80020099800200B1800200A58002008B
:10D120000000000000000000000000007129020063
:10D130007D220200000000001D2902008122020061
:10D140008522020089220200D5170200452C020028
:10D150008D220200912202009522020099220200F3
:10D160009D220200A1220200A5220200A9220200A3
:10D17000AD220200B1220200B5220200B922020053
:10D18000BD220200C1220200C5220200C922020003
:10D19000CD220200D1220200D5220200D9220200B3
:10D1A000DD220200652C0200E1220200552C020063
:10D1B000E5220200E9220200ED220200F122020033
:0CD1C000F5220200F9220200FD2202000C
:10D1FC0000015F5F00000000FE0B0000D92A020056
:10D20C00000400000000000000000000000000000E
:10D21C000000000000000000007000200000000072
:10D22C0001015F5F01000000FF030000392B0200C9
:10D23C0000010000000000000000000000000000E1
:10D24C00000000000000000000740020000000003E
:10D25C0001015F5F050100001F010000E5EF000008
:10D26C0000070000000000000100000001000000A9
:10D27C000000000000000000102D00200000000045
:10D28C00800000AE0007030020000000030F000028
:10D29C000100000029EF00000100000001015F5FA8
:10D2AC002D0100000F030000050D0100001000000F
:10D2BC00000000000000000005000000000000005D
:10D2CC0003000000203600200000000018070300B7
:10D2DC00800000AE000F0000010000000000000004
:10D2EC00100000002C070300700000000005000077
:10D2FC0001000000000000002000000038070300BF
:10D30C00710000000005000001000000000000009A
:10D31C0040000000440703007200000000050000FC
:10D32C00010000000000000080000000580703000E
:10D33C007300000000050000010000000000000068
:10D34C0000010000612B0200752C02002D01000071
:10D35C000300000000000080AD2B02008D2C0200A9
:10D36C002D0100001B00000000000040F92B020002
:10D37C00812C02002D01000019000000000000208B
:10D38C0001015F5F2C0100000F0300003917020040
:10D39C000010000000000000000000000100000070
:10D3AC000000000000000000680C002000000000DD
:10D3BC0068070300700000AE0005000001000000CB
:10D3CC00000000001000000001015F5F2E01000052
:10D3DC000F020000B909010000100000000000005D
:10D3EC00000000000100000000000000010000002F
:10D3FC00681C0020000000007C070300000500AE44
:10D40C0000050000010000000000000010000000FA
:10D41C0089170200E51702002E010000020000002F
:04D42C00000000807C
:10D44000F8B50D4617460446C0E9265700F1A00777
:10D4500048220021ED0F38461E461AF061FF0023D6
:10D460009FED157BC4F8D8500225069A204606CABF
:10D47000C4F8C06084ED347BC4E9373384F8C85005
:10D4800022F09AFD2146384602F06CF8054638B184
:10D4900003280BD019280CBF012503252846F8BD09
:10D4A0002046052122F0F6FD2846F8BD0425284631
:10D4B000F8BD00BFAFF300805D81FF7F000000007A
:10D4C00070B50546164C4FF48072002120462E6937
:10D4D0001AF026FF4FF480720021A0181AF020FFE6
:10D4E0000DA1D1E90001EB6A326923610023C4E98F
:10D4F00009336361E36263634FF0C8532263AA6B2D
:10D50000C4E90201A2616A6C23602262B5F8482076
:10D51000C2F30B02E26170BD2E0008080800000093
:10D52000103400200000000070B50546184C4FF480
:10D530008072002120462E691AF0F2FE4FF48072AC
:10D540000021A0181AF0ECFE002233694FF0C851F8
:10D550002363AB6B6262A361B5F84830E262C3F348
:10D560000B0343F49003E361626300230022686CC1
:10D57000503520622160C4E9042303A1D1E90001F0
:10D58000A562C4E9020170BD2F0008080800000070
:10D59000103400200000000070B5826FC36E044696
:10D5A0009A42474B474A0D46DA62037E84B020D048
:10D5B000042B01D00F295ED80026636B404AC2F8C5
:10D5C0009030A36BC2F89430E36BC2F89830236CB0
:10D5D000C2F89C30002E37D0237E022B02D00020D0
:10D5E00004B070BDEFF30583002B51D0606904B027
:10D5F00070BD042B01D00F2950D800269FED2E7B43
:10D6000094F88120E16AC2F10E030DF101008DED65
:10D61000007B8DED027B8DF800301AF043FE012176
:10D62000009B274A8DF80F10C2F89030019BC2F87A
:10D630009430029BC2F89830039BC2F89C30D069AA
:10D64000C307FCD4002EC7D1D4E9090133462A46CA
:10D650000EF07AF9A26F1A4B521BA267D3F89020F2
:10D660006263D3F89420A263D3F89820E263D3F8DE
:10D670009C302364B3E70B46D0E909120EF040F961
:10D68000A36F01261B1AA367636E1B1A636694E7D8
:10D690004FF0FF310C480BF08BF8A7E70B46D0E9B1
:10D6A00009120EF02DF9A36F01261B1AA367636EF2
:10D6B0001B1A6366A2E700BF000000000000000024
:10D6C00000000C402A002A01E06B0020000000004E
:10D6D00030B5C36905460C4685B0002B3ED1284BBA
:10D6E000284ADA629FED247B95F820202969C2F14F
:10D6F0000E030DF101008DED007B8DED027B8DF8A9
:10D7000000301AF0CFFD0021009A1D4B8DF80F104C
:10D71000C3F89020019AC3F89420029AC3F8982085
:10D72000039AC3F89C20DA69D207FCD42168EA691D
:10D73000C3F880106168C3F88410A168C3F888102A
:10D74000E168C3F88C10196F2160596F6160996F9F
:10D75000A160DB6FE3602AB905B030BD084B0A4A0F
:10D76000DA62BFE70123D5E9020105B0BDE8304028
:10D770000EF0EAB8AFF300800000000000000000E7
:10D7800000000C4028002A012A002A0100000000A5
:10D790002DE9F0470468DDE90889D4F8E050002D50
:10D7A00078D11E4694F8F030002B73D18E464FF09E
:10D7B000010A04F1040CD64507460FCA8CE80F0095
:10D7C0006561C4E91A68C4F8DC6084F87CE084F818
:10D7D0008090256784F87F50C4F8D88084F8F0A042
:10D7E00051D02022002104F182001AF099FD10226C
:10D7F000002104F1A2001AF093FD1022002104F18F
:10D80000C4001AF08DFD1022002104F1B2001AF0BC
:10D8100087FD002322792363282AA36503D12046AC
:10D820000BF098FD0546102E05D9D4F8E4304BB125
:10D830002846BDE8F087B8F1100FF9D9D4F8E430E4
:10D84000002BF5D13946206803F0D4FF40B33C6883
:10D85000302294F87C30012B19BF15A1D1E90001C9
:10D860000021114804F0F6F83A4604200F4903F06D
:10D87000FFFF90B904F03EF878B9656903F0E6FF60
:10D880002846BDE8F087B9F1000FAAD1102384F82B
:10D890008030A6E74FF0FF35CAE74FF0FF35EDE7E0
:10D8A0006FF00105C4E700BF02281400918F01004A
:10D8B00002282400000000002DE9F84F0B680D46F7
:10D8C0001A780646022A5DD0082A5BD0222A02D0A6
:10D8D000282A40F0968095F820903468A9F1070234
:10D8E000062A00F28E80D4F8E020002A40F08980D9
:10D8F000D5E9067E17EB0E0F00F0838094F8F080D8
:10D90000B8F1000F7DD1012204F1040C84F87C20D1
:10D910000FCBC4F81480A5658CE80F006B68D5E9BF
:10D9200002BAD5E9042CC4E9083BC4E90AA2C4F848
:10D9300030C0C4F85CE0C4F86CE095F821303146A2
:10D94000002B08BF1023C4F8D8E0206884F8819029
:10D95000C4F8E480C4F8D470A766C4F8DC7084F816
:10D96000803003F047FF00284ED0EB69102B01D91F
:10D970001B070ED12379282B25D03046BDE8F84F60
:10D980000CF044BA29463046BDE8F84F01220BF0AE
:10D99000D3BF3568302295F87C30012B19BF1FA109
:10D9A000D1E9000100211A4804F054F8324604205D
:10D9B000184903F05DFF0028DCD103F09BFF00282D
:10D9C000D8D16B69D6E720460BF0C4FC044600288A
:10D9D000D3D03568D5F8E40020B903F037FF2046EE
:10D9E000BDE8F88F04F066F8324604200A4903F0D7
:10D9F0003FFF0028F1D103F07DFF0028EDD16B69D6
:10DA0000EBE74FF0FF34EAE76FF00104E7E700BF10
:10DA100002281400918F0100718F01000228240058
:10DA200000000000000000002DE9F84F0B680D46D3
:10DA30001A780646022A59D0082A57D0222A02D03C
:10DA4000282A40F0928095F820903468A9F10702C6
:10DA5000062A00F28A80D4F8E020002A40F085806F
:10DA6000D5E9067E17EB0E0F7FD094F8F080B8F161
:10DA7000000F7AD1022204F1040C84F87C200FCB31
:10DA8000C4F81480A5658CE80F006B68D5E902BA6C
:10DA9000D5E9042CC4E9083BC4E90AA2C4F830C0A3
:10DAA000C4F85CE0C4F86CE095F821303146C4F865
:10DAB000D8E0206884F8803084F88190C4F8E4804D
:10DAC000C4F8D470A766C4F8DC7003F093FE002895
:10DAD0004ED0EB69102B01D91B070ED12379282BCF
:10DAE00025D03046BDE8F84F0CF090B929463046B5
:10DAF000BDE8F84F02220BF01FBF3568302295F8C1
:10DB00007C30012B19BF1FA1D1E9000100211A4867
:10DB100003F0A0FF32460420184903F0A9FE0028B4
:10DB2000DCD103F0E7FE0028D8D16B69D6E72046A8
:10DB30000BF010FC04460028D3D03568D5F8E4007B
:10DB400020B903F083FE2046BDE8F88F03F0B2FF52
:10DB5000324604200A4903F08BFE0028F1D103F07D
:10DB6000C9FE0028EDD16B69EBE74FF0FF34EAE71F
:10DB70006FF00104E7E700BF02281400918F010055
:10DB8000718F010002282400000000000000000046
:10DB900030B504680546606983B0002854D1C1B12E
:10DBA00094F87CC06267BCF1010FA267A166C4F85B
:10DBB000DC10E26684F88030206784F87F00C4F8C7
:10DBC000D82044D0102917D9D4F8E430D3B103B009
:10DBD00030BD002A4DD094F87C1062670129A267FD
:10DBE000A066C4F8DC00E26684F88030206784F820
:10DBF0007F00C4F8D82030D0102AE8D9D4F8E43017
:10DC0000002BE4D12946206803F0F4FD70B32C68A2
:10DC1000302294F87C30012B19BF19A1D1E9000101
:10DC20000021154803F016FF2A460420134903F08B
:10DC30001FFEC0B903F05EFEA8B96069019003F051
:10DC400005FE019803B030BD606903B030BD002B04
:10DC5000B8D1102384F88030B4E7002BCCD1102346
:10DC600084F88030C8E74FF0FF30E7E76FF001003D
:10DC7000ADE74FF0FF30AAE702281400918F0100B2
:10DC80000228240000000000F0B504683E4A94F821
:10DC900048103E4B11F0100F94F8491005460CBF88
:10DCA0004FF400604FF48060012908BF13462279C9
:10DCB0008BB0222A07D0282A41D0A26D52B14FF052
:10DCC000FF300BB0F0BDA36DA668002BF7D127463F
:10DCD000FA6801E027461646012919BF28A1D1E9B3
:10DCE000000100212A4803F0B5FE2A4604202949F4
:10DCF00003F0BEFD0028E2D103F0FCFD0028DED1D8
:10DD000078690028DDD101232F6884F861303B79E0
:10DD1000222B2FD0282B14BF0146B9683046BA6D8C
:10DD200003F0ACFE2A4604201B4903F0A1FD0028A5
:10DD3000C5D103F0DFFD0028C1D17869C1E70190AA
:10DD40000093202204F1580302A9201D03F0A2F938
:10DD50000028B6D1A26D52B92F683B7997F84910C7
:10DD6000222B09D0282B02AEB6D1BA68B4E784F8CA
:10DD70006100A6E7F968D1E702AEA9E7AFF300803A
:10DD800001281208000000000002C0030001C003C7
:10DD900001281200CDA7010081A7010000000000AA
:10DDA0002DE9F0470468064694F84830676C13F094
:10DDB000EF032FD0626D002A43D04FF000094FF0DF
:10DDC000FF385D1EBB6818BF01250F2B29D93A68A3
:10DDD000E2641A071CBF002523F00F0349462A46B8
:10DDE0002046236504F010FB32462F49207E03F0C5
:10DDF0003FFD38B903F07EFD20B9D4F814804046C9
:10DE0000BDE8F08730460CF037FD03F01FFD4046BB
:10DE1000BDE8F0870125BB684FF0FF380F2BA946FE
:10DE2000D5D804F1300A1022002150461AF078FAB1
:10DE30005046BA6839681AF035FABB68C4F84CA085
:10DE4000CCE794F849301022012B19BF14A1D1E975
:10DE500000010021154803F0FDFD3246042014495D
:10DE600003F006FD58B903F045FD4FF0010994F8A1
:10DE7000483068B9D4F8148003F0EF03A1E794F8B0
:10DE800048304FF001094FF0FF3803F0EF0398E7F7
:10DE90004FF0FF3803F0EF0393E700BFAFF30080CC
:10DEA000022812080000000025A901000228120023
:10DEB000EDA7010000000000F8B50468E66D751CD0
:10DEC0003AD00F4694F849100546022936D0F96831
:10DED00001390F2935D894F8606096BB84F8483032
:10DEE00004F1040C0FCA676466618CE80F0010230C
:10DEF00004F12000194632466665A66511F06CFDF6
:10DF00002946206803F076FC002839D02846FFF720
:10DF1000BBFEBB680646102B01D91B0714D136B9CE
:10DF20002846BDE8F840FFF73BBF4FF0FF362846D4
:10DF30000CF0A2FC03F08AFC3046F8BDB968002959
:10DF4000C5D14FF0FF36F7E72C68102294F849301E
:10DF5000012B19BF0EA1D1E9000100210A4803F0ED
:10DF600079FD2A460420094903F082FC0028DCD10F
:10DF700003F0C0FC0028D8D16669002ED0D0D6E7C7
:10DF80006FF00106D8E700BF02281200EDA70100DC
:10DF900002281208000000002DE9F8430468DDF8AB
:10DFA0002080D4F8EC50002D72D11E4694F8FC303D
:10DFB000002B6DD18E464FF0100904F1040C07467A
:10DFC0000FCA8CE80F0084F898E06561202229468A
:10DFD000C4F89080C4F88860C4F88C80C4F8946059
:10DFE000E567C4F8805084F8999004F19B001AF01A
:10DFF00097F94A46294604F1BB001AF091F94A46BE
:10E00000294604F1DC001AF08BF94A46294604F14E
:10E01000CB001AF085F9012384F8FC3023792563BD
:10E02000282BA56703D120460EF018FC0546102EBC
:10E0300005D9D4F8F4304BB12846BDE8F883B8F1DF
:10E04000100FF9D9D4F8F430002BF5D139462068F7
:10E0500003F0D0FB20B33C68302294F89830012BB9
:10E0600007BF12A1D1E9000112A1D1E9000103F01B
:10E07000F1FC3A4604200C4903F0FAFB58B903F0CE
:10E0800039FC40B9656903F0E1FB2846BDE8F88337
:10E090004FF0FF35D0E703F0D9FB4FF0FF35F2E743
:10E0A0006FF00105C8E700BF79C701000228140816
:10E0B000000000000228240800000000000000000A
:10E0C0002DE9F843D1E9067E1EEB070F046800F046
:10E0D0009780D4F8EC30002B40F0928094F8FC80CC
:10E0E000B8F1000F40F08C8001230D4684F8983081
:10E0F0000B6804F1040CC4F81480A16706460FCB2A
:10E100008CE80F006B68D5E90290D5E9042CC4E9CE
:10E110000839C4E90A02C4F830C0C4F87CE0C4F885
:10E120008CE095F82130C4F88070002B08BF1023D4
:10E13000C4F8887095F820203146C4F890E084F83F
:10E140009A20C4F89470C4F8F48084F89930206858
:10E1500003F050FB002856D0EB69102B0ED8237922
:10E1600004F13405282B28D01022002128461AF06B
:10E17000D7F83046BDE8F8430EF01EBD1B07EED0C1
:10E180003568302295F89830012B07BF24A1D1E9DA
:10E19000000125A1D1E9000103F05CFC3246042016
:10E1A0001D4903F065FB88BB03F0A4FB70BB6B69E2
:10E1B000237904F13405282BD6D120460EF04EFBEE
:10E1C00004461022002128461AF0AAF8002CD0D0CC
:10E1D0003568D5F8F40020B903F038FB2046BDE8D7
:10E1E000F88303F067FC324604200C4903F040FB3F
:10E1F0000028F1D103F07EFB0028EDD16B69EBE73D
:10E200004FF0FF34EAE76FF00104E7E703F01EFB8D
:10E21000A5E700BFAFF3008079C701005DC701002B
:10E220000228140800000000022824080000000052
:10E230002DE9F843D1E9067E1EEB070F046800F0D4
:10E240009480D4F8EC30002B40F08F8094F8FC8060
:10E25000B8F1000F40F0898002230D46064684F88D
:10E2600098300B6804F1040CC4F81480A1670FCB3C
:10E270008CE80F006B68D5E90290D5E9042CC4E95D
:10E280000839C4E90A02C4F830C0C4F87CE0C4F814
:10E290008CE095F82130C4F8807084F89930C4F887
:10E2A000887095F820303146C4F890E084F89A30B0
:10E2B000C4F89470C4F8F480206803F09BFA002836
:10E2C00056D0EB69102B0ED8237904F13405282B96
:10E2D00028D01022002128461AF022F83046BDE846
:10E2E000F8430EF069BC1B07EED03568302295F874
:10E2F0009830012B07BF24A1D1E9000124A1D1E965
:10E30000000103F0A7FB324604201D4903F0B0FAD8
:10E3100088BB03F0EFFA70BB6B69237904F1340515
:10E32000282BD6D120460EF099FA0446102200215F
:10E33000284619F0F5FF002CD0D03568D5F8F40048
:10E3400020B903F083FA2046BDE8F88303F0B2FB5E
:10E35000324604200B4903F08BFA0028F1D103F078
:10E36000C9FA0028EDD16B69EBE74FF0FF34EAE71B
:10E370006FF00104E7E703F069FAA5E7AFF3008067
:10E3800079C701005DC701000228140800000000E1
:10E39000022824080000000030B5036804465869CC
:10E3A00083B000283FD181BB002A47D0C3E92202B5
:10E3B000C3F89400C3F89020102A32D9D3F8F4207F
:10E3C0007ABB2146186803F015FA002833D0256877
:10E3D000302295F89830012B07BF1CA1D1E900012C
:10E3E0001CA1D1E9000103F035FB224604201649A7
:10E3F00003F03EFAD0B903F07DFAB8B9686901902C
:10E4000003F024FA019803B030BD1029C3F894102A
:10E41000C3E92212C3F89020CED9D3F8F420002A01
:10E42000CFD003B030BD586903B030BD03F00EFA51
:10E430004FF0FF30E3E76FF00100F2E74FF0FF30FD
:10E44000EFE700BFAFF3008079C70100022814088E
:10E450000000000002282408000000000000000066
:10E460002DE9F047046894B0A36A013300F00483F7
:10E470000022237F0746012B228201D0022B43D1A9
:10E48000A3695E68002E3FD03D4D31682B689942EC
:10E490004AD1B269AB699A4246D16968706811F095
:10E4A0007DFA00283FD0B2692969306911F076FA07
:10E4B000002838D0E023012019466074E3812073DE
:10E4C00004F1400304F13C021FF08EFC002800F030
:10E4D0005C822268137803F0DF01022902D0282B26
:10E4E00040F0FC816068257F0178012D01F0DF019B
:10E4F0004AD0022939D06FF0220014B0BDE8F0876D
:10E50000607C002840F01883207B431E072B00F21C
:10E510001583DFE813F07D0168015E019101680158
:10E520005E01880182013168164D2B688B4240F0F4
:10E530008B81B269AB699A4240F0868169687068E4
:10E5400011F02CFA002800F07E81B2692969306947
:10E5500011F024FA002800F076814FF48071012038
:10E560000223E18160742373AAE7A168097801F0AE
:10E57000DF0104290AD06FF0230014B0BDE8F08752
:10E5800074130200581402000429B4D11907E38956
:10E5900054BF916851680733B1EBD30F4FEAD306EC
:10E5A00040F07082A37F8268002B40F0F480490025
:10E5B0000131914240F02281022D00F02281012D93
:10E5C00040F004810021406819F0AAFE9022002149
:10E5D00004F1440019F0A4FE3946206A03F00AF958
:10E5E0000546002800F051823E6830680378282BE9
:10E5F00000F07781B1460025D0F80480B9F80E20EC
:10E6000099F80C301F325209082B02F1010207BFA2
:10E61000C9A1D1E90001CAA1D1E90001920003F02A
:10E6200019FA3A460420BA4903F022F9002840F0CA
:10E63000AC8103F05FF9002840F0A781D9F82800E9
:10E6400000287FF45AAF0123D7F800A086F8D43011
:10E65000BAF80E9009F11F094FEA591999444FEA87
:10E660008909002D00F010819AF80C30082B0BD18D
:10E6700098F8043023F0070388F8043098F8233022
:10E6800043F0400388F8233049464046DAF82C200E
:10E6900003F0F4F93A4604209E4903F0E9F8002813
:10E6A00040F0738103F026F9002840F06E81DAF81B
:10E6B000280000287FF421AF3D68EA892B7B1F32B8
:10E6C0005209082B02F1010200F03E81002192481C
:10E6D000D20003F0BFF93A460420904903F0C8F88D
:10E6E000002840F0528103F005F9002840F04D81E8
:10E6F000A86A00287FF401AF95F81C803D68B8F146
:10E70000020F00F07F81337F022B00F04181002156
:10E710002A6C834803F09EF93A460420814903F0AD
:10E72000A7F8002840F0318103F0E4F8002840F019
:10E730002C81A86A00287FF4E0AE3D68D5E90F017E
:10E74000AA6B03F09BF93A460420774903F090F84E
:10E75000002840F01A8103F0CDF8002840F0158120
:10E76000A86A00287FF4C9AE237B082B3FF4C5AE0E
:10E770003C68204603F044FA3A4604206B4903F013
:10E7800077F8002840F0018103F0B4F8002840F049
:10E79000FC80A06AB1E6237B082B2DD0B2EB410FA1
:10E7A0002CD1022D7FF40BAFA36899688E4269D0FB
:10E7B000B1EB460F4FEA460203D00132914240F0DE
:10E7C0007F810021586819F0ABFDFFE6A3689A68C5
:10E7D000F7E74FF4C0710328E18109D040F201232B
:10E7E000022023826CE64FF480710228E181F5D18A
:10E7F00001231846637463E69142D2D06FF025007E
:10E800007BE643681B78042BCED06FF0280074E6BB
:10E81000E0210123E181637452E6FF2303201946BE
:10E82000E38160744CE64FF4007340F20122022051
:10E830001946E381228243E640F20923012019466A
:10E84000E38160743CE63168394D2B688B4240F0BF
:10E850008180B269AB699A427CD16968706811F0B5
:10E860009DF8002875D0B2692969306911F096F8D1
:10E8700000286ED04FF4C07101200323E181607441
:10E8800023731DE632469CE729460AF144054A46B1
:10E89000284619F045FDDAF800309AF8102058683B
:10E8A000BAF80E109AF81E30009511F001FD9AF892
:10E8B0000C30082B0BD19AF8483023F007038AF864
:10E8C00048309AF8673043F040038AF86730494689
:10E8D0002846DAF82C2003F0D1F8DBE66FF02100AF
:10E8E0000BE64FF48042134B02A9CDE900324822D7
:10E8F00006F12C0302F0CEFB00287FF4FEADF36A94
:10E90000002B40F0BC80D7F800900DF1080875E6A8
:10E9100045D1010015D101000140210065D1010060
:10E9200001440F00A5D10100DDD101002DD101006E
:10E9300030120200000002090148410400000000FA
:10E940000148210400000000920086A1D1E90001E5
:10E95000BFE631687C4D2B688B4234D1B269AB691C
:10E960009A4230D16968706811F018F850B3B269F2
:10E970002969306911F012F820B340F20921012011
:10E980000423E181607423739AE54FF0FF30B4E50E
:10E99000EA8940F201401F3252090021920003F03F
:10E9A00059F83A460420694902F062FF0028ECD188
:10E9B00002F0A0FF0028E8D1A86A00287FF49DADEE
:10E9C0003D68A4E63168624D2B688B4261D1B26923
:10E9D000AB699A425DD16968706810F0DFFF00286A
:10E9E00056D0B2692969306910F0D8FF00284FD09D
:10E9F0004FF48071052240F201230220E18122734D
:10EA000023825DE5EB8905F1440A1F3301465B096A
:10EA10009022504603F1010919F082FC2B7BE98911
:10EA2000082B08BF4FF001086B6808BF4FEA89093F
:10EA300058682B7CCDF804A095F81EC018BF4FEA8B
:10EA4000C9094246CDF800C011F050FC4946504675
:10EA50002A6B03F013F83A4604203E4902F008FFFF
:10EA6000002892D102F046FF00288ED1A86A002823
:10EA70007FF443AD3D6846E66FF01F003DE586F844
:10EA8000D40019E66FF0240037E56FF0010034E59B
:10EA90003168314D2B68994216D1B269AB699A42FF
:10EAA00012D16968706810F079FF60B1B2692969A4
:10EAB000306910F073FF30B14FF4C07106229AE74D
:10EAC0006FF0260019E53168244D2B68994213D167
:10EAD000B269AB699A420FD16968706810F05EFF45
:10EAE00048B1B2692969306910F058FF18B14FF484
:10EAF000007107227FE73168194D2B6899427FF436
:10EB0000FFACB269AB699A427FF4FAAC696870688D
:10EB100010F044FF00283FF4F3ACB2692969306972
:10EB200010F03CFF00283FF4EBACFF21032008234A
:10EB3000E18160742373C3E4E189C1E400236FF0D1
:10EB400020006374D9E400BF7410020085D1010075
:10EB5000900F020015D101004C0E0200A80C02001B
:10EB6000AC0B02000140410000000000000000006A
:10EB70002DE9F04F05688DB06B6A013300F0D0814C
:10EB80002B7D04465A1E012A76D9032B00F04881BA
:10EB90006A68137819076DD55368202B40F08B8174
:10EBA000FF21042005F1400305F13C021FF01CF990
:10EBB000002800F083812146286A02F01BFE0646E9
:10EBC000002800F07E8127683B7D5A1E012A40F212
:10EBD0009380B8467868032B72D0C1460026D0F8DF
:10EBE00004A0C6A1D1E90001242202F033FF22468D
:10EBF0000420B94902F03CFE002840F0F98002F000
:10EC000079FE002840F0F480D8F824503DBB01255F
:10EC100099F8142089F80A50023AAA42D4F80090D0
:10EC200040F200813B7D023B012B40F2B28000218B
:10EC3000AA48D9F8402002F00DFF22460420A84936
:10EC400002F016FE002840F0D38002F053FE0028A8
:10EC500040F0CE80D9F82450002D00F0B18020463D
:10EC60000FF07AF802F0F2FD28460DB0BDE8F08F03
:10EC700004281DD1936890E72A68117801F0DF001D
:10EC800002281BD0282913D15268202A40F0408145
:10EC90006968012B08780A4600F0DF00E8D00B789D
:10ECA0000A4603F0DF010229E4D0282B3FF474AFB9
:10ECB0006FF0220528460DB0BDE8F08F9268E4E7BA
:10ECC0000378282B89D14FF400630193854B2422CC
:10ECD000009303A908F12C0302F0DCF90546002893
:10ECE000BDD1D8F82C30002B40F01581C1460DF174
:10ECF0000C0AD4F8008074E738680378282B00F0F9
:10ED0000BD803D464FF00009D0F804806EA1D1E9E6
:10ED10000001242202F09EFE22460420724902F0E5
:10ED2000A7FD002864D102F0E5FD002860D16D6ADE
:10ED3000002D94D14FF0010A25682B68D3F804B058
:10ED400087F809A0B9F1000F55D040462421AA6ADE
:10ED500002F094FE22460420644902F089FD002856
:10ED600042D102F0C7FD00283ED16D6A002D7FF42C
:10ED700076AFD4F8008098F81430022BD8F804004D
:10ED80007FF429AF0378282B7FF427AF4FF48063FB
:10ED90009BE74FA1D1E90001402202F05BFE224631
:10EDA0000420534902F064FD10BB02F0A3FDF8B942
:10EDB000D9F82450002D7FF452AFD4F8009036E7F4
:10EDC0002568D5E90F012A6B02F058FE224604207F
:10EDD000484902F04DFD58B902F08CFD40B96D6A0A
:10EDE000002D3FF467AF3AE7013001D102F02EFD6C
:10EDF0004FF0FF3533E705F15008494624224046DD
:10EE000019F08EFA584652465346FF21CDF800803D
:10EE100011F04EFA40462421AA6A02F02FFE99E72B
:10EE200069683CE7002E3FD1314609F150062422A3
:10EE3000304619F075FAD9F804302A465868FF218F
:10EE40002B46CDE9005611F051FA30462421D9F86D
:10EE50002C2002F013FE22460420274902F008FD70
:10EE60000028C5D102F046FD0028C1D1D9F82450B0
:10EE7000002D7FF4F4AED4F80090D3E64FF4804236
:10EE8000184B03A9CDE90032242207F1280302F030
:10EE900001F9054600287FF4E2AEBB6A93BBB14698
:10EEA00025680DF10C0831E750462421D9F82C20B3
:10EEB00002F0E4FDCFE76FF00605FBE64FF0FF350B
:10EEC000F8E66FF01F05F5E6014850380000000035
:10EED0000228D00100000000B1DC010001440F0055
:10EEE000F1DC01000008000691DC010079DC010082
:10EEF000D1DC010029DD010041DD01000140503875
:10EF000000000000D4F80080787298F8143034E7DC
:10EF10006FF00505CEE6D4F8009088F80A0081E687
:10EF20006FF02005C6E600BF40F2E932F0B5036895
:10EF30000446934285B026D040F2EA3293421DD176
:10EF40000369042B48D1036A042B45D18568244802
:10EF50000021056002AA606819F04CFA04280646F0
:10EF60003AD1029803A900F08FF9054640B901464D
:10EF70003346606803AA19F049FA01E06FF085058D
:10EF8000284605B0F0BD0669076A731E3F2B23D8DB
:10EF900017B38268124B002140681A6019F072FAA8
:10EFA00000210546606819F07DFA024603A800902A
:10EFB0003B462846314600F03DF905460028DFD1A2
:10EFC00029466068039A19F075FA6068294619F0B5
:10EFD00061FA284605B0F0BD6FF08605D0E700BFA6
:10EFE000A04B002000F018B9202230B58DB00546A6
:10EFF00004A901A8019213F02FFA60B90446019BFD
:10F000002846074902AA04ADCDE9025300F094FA5C
:10F0100020460DB030BD052420460DB030BD00BFE8
:10F0200008DBFEFF30B50D4B83B00193054600F0C1
:10F030005BFA6A4601A900F051F9044608B9009B41
:10F0400013B1204603B030BD2846012200230449F5
:10F0500000F04CFA204603B030BD00BF02DBFEFFDB
:10F0600001DBFEFF38B50025044613F0C3F92B463B
:10F0700002460349204600F039FA284638BD00BF51
:10F0800006DBFEFF30B583B0054601A800F0D2FCD8
:10F09000044628B9019A28460349D31700F026FAF6
:10F0A000204603B030BD00BF07DBFEFF202230B595
:10F0B0008DB0054604A901A8019213F0FDF960B9CD
:10F0C0000446019B2846074902AA04ADCDE9025334
:10F0D00000F01CFA20460DB030BD032420460DB0D0
:10F0E00030BD00BF05DBFEFF30B583B00546684686
:10F0F00000F07EF9044620B96A462846024900F02D
:10F1000005FA204603B030BDFFDAFEFF002230B51D
:10F110008BB0054602A92020CDE9002213F0B0F9FA
:10F1200060B90446202302A9284600916A46054991
:10F13000019300F0EBF920460BB030BD03242046CC
:10F140000BB030BD04DBFEFFF0B5BDB004460D468C
:10F150002E4802A9164620F0D5FDA0B9BDF808300A
:10F1600003F44F42B2F5824F11D0B3F5885F0AD154
:10F17000BDF80A30B3F5C07F1AD0B3F5007F3CD09C
:10F18000B3F5807F37D0052420463DB0F0BDDBB21B
:10F19000122BF8D1BDF80A30B3F5C07F32D0B3F5E9
:10F1A000007F2CD0B3F5807FEDD16FF0060300E037
:10F1B000062300220095114602A8FEF741F9B0B9D6
:10F1C0002246134902A800F0A1F9124D05F11C07CF
:10F1D00055F8043F02A8984704460028D4D1AF420E
:10F1E000F6D1314602A800F04DF90028CCD0012814
:10F1F000C9D10224C8E70523DBE70723D9E76FF06D
:10F200002303D6E76FF02203D3E700BF5D81FF7FC2
:10F2100000DBFEFFE808020008B500F0E1F8042872
:10F2200096BF034B6FF0830053F8200008BD00BF6A
:10F23000D808020000B587B0029221F01002202AFF
:10F2400000900191039306D0402904D06FF086000E
:10F2500007B05DF804FB002BF8D0684604AA02A9A9
:10F26000FFF772FF28B9059B089A136007B05DF895
:10F2700004FB042802D96FF08300E9E7014B53F83F
:10F280002000E5E7D808020000236FF0004210B527
:10F2900086B0CDE90232009320F01003202B0C46FB
:10F2A000019005D0402803D06FF0860006B010BD55
:10F2B000684604AA02A9FFF747FF18B9059B236017
:10F2C00006B010BD042803D96FF0830006B010BD4E
:10F2D000014B53F82000E9E7D80802002DE9F04F70
:10F2E00087B0019000285AD09046002A57D00023BA
:10F2F00042F2160A1D46384F04AE07F104091360A6
:10F3000002913B88534503D0032007B0BDE8F08F3E
:10F31000B7F802B0BB44CB451CD9304C05E0BDF872
:10F32000123004331C44A34514D90422214630462C
:10F3300018F0B8FFBDF81030C3F38512AA42EED121
:10F3400003F03F033F2BBDF812B016D0062D0DD0B1
:10F350000135D6E7062D09D0CB4505F10105D0D8FA
:10F3600042F2160339F8041C9942CDD1D8F8003086
:10F37000CBB9002007B0BDE8F08FD8F800300133DA
:10F38000012BC8F8003014D00434CDF814B0049424
:10F39000092196E80C00019820F044FED6E70420ED
:10F3A00007B0BDE8F08F0198042120F0A3FE0020F3
:10F3B000E0E7029B5BB11B6801981A460393DB17D9
:10F3C00020F012FE0421019820F064FEDCE7042105
:10F3D000019820F05FFED7E7A44B0020A84B002047
:10F3E0004FF400720120014900F02CBBA44B002017
:10F3F00070B51D4D04462A6886B03AB1002C31D054
:10F4000000201A4BC4E9003206B070BD184E0092BD
:10F4100033685BB9174801A920F074FC00BB334680
:10F4200041221549134820F08DFCC8B9684613499C
:10F4300020F0AEFCA0B9684632680F4920F0CCFC41
:10F4400070B90F4E684620223146074B20F0E6FC8B
:10F4500030B901232A6806F8013C1A442A60CDE736
:10F460000320D1E70520CFE7A84D0020AC4D0020B8
:10F47000D04D00205D81FF7FD44D002009000002A7
:10F48000AD4D002070B5044682B00D46052120F038
:10F4900031FE214604F1A00000F0E6F858B103283F
:10F4A00019D0192803D10123184602B070BD0323D7
:10F4B000184602B070BD6E462046314620F0FAFE76
:10F4C00001280346EFD050B996E8030085E8030011
:10F4D000184602B070BD0423184602B070BD022366
:10F4E000184602B070BD00BF704700BF70B5164629
:10F4F00004461D460A46CB1720F076FD32462B46C1
:10F500002046BDE8704020F06FBD00BF134670B5C7
:10F51000D3E90065044682B00A46CB1720F064FDAB
:10F5200002212046CDE9006502AB13E90C0002B0D0
:10F53000BDE8704020F076BD134670B5D3E9006594
:10F54000044682B00A46CB1720F04EFD0321204628
:10F55000CDE9006502AB13E90C0002B0BDE87040D4
:10F5600020F060BD2DE9F0410446AAB0006A0E46C5
:10F5700000F0FCF800285BD0A36B9A0752D5042159
:10F58000304620F087FD18226B4604AD00940192AE
:10F5900093E806002846276A20F00EFD052128463C
:10F5A00020F078FD01220023284620F01DFD3A4678
:10F5B000FB17284620F018FD0521284620F09AFD6B
:10F5C000284602A920F076FE074630BB029B039A2C
:10F5D000A361E26123B304F1180393E8030085E813
:10F5E0000300022195E80C00304620F01BFDA36BC0
:10F5F000DB0733D4D4E90F840521304620F04AFDDF
:10F60000DCB93046052120F075FD0221304620F09E
:10F6100041FD38462AB0BDE8F0810023C4E9063335
:10F620000227F6E712220023304620F029FDA6E744
:10F63000012738462AB0BDE8F081B8F1000FE0D0CC
:10F6400030460422002320F0CFFCCDE904840221BF
:10F6500095E80C00304620F0E5FCD2E71C27384640
:10F660002AB0BDE8F08100BF40232DE9F0430C46ED
:10F670002025ADB00DEB03061CAA14AFCDE90E7525
:10F680000C9201213246054620460D9320F09EFD46
:10F69000A37B1BB101232374192630E0237C012BAB
:10F6A000FAD0002B42D12268D5F820C05AB30DF110
:10F6B0002008CDF8108002AF0EA903C987E8030027
:10F6C00096E803008DE8030005F11802604606CABB
:10F6D00000F052F8064690B9AB6B0DF12809DB0734
:10F6E00029D599E8030012AB83E8030002210CCB73
:10F6F000204620F097FC0421204620F0FBFC3046F9
:10F700002DB0BDE8F0830BAB029305F1300393E815
:10F7100003008DE8030028350A92604695E80C0046
:10F7200000F010F90DF128090646DAE718263046F0
:10F730002DB0BDE8F083CDF8189004AA0CA903C938
:10F7400082E8030005F1280398E803000CCB87E862
:10F75000030005F1300C9CE803008DE80300286AE3
:10F7600000F090F80028BCD00646C8E7C31D0CBFC7
:10F770006FF00F00002070472DE9F041BCB06F46DC
:10F7800087E8060030210AAA0292039102AA06CA5B
:10F790003B4C804616A81E4620F00EFC042116A8FD
:10F7A00020F078FC204620F06FFF0025CDE90840CE
:10F7B00008AC032194E80C0016A820F033FC97E86D
:10F7C000030084E80300022194E80C0016A820F04E
:10F7D00029FCCDE90855022194E80C0016A820F078
:10F7E00021FC002E3CD1CDE90866022194E80C00F2
:10F7F00016A820F017FC0125042116A820F07AFC99
:10F8000016A804A920F056FD002835D118F1070FDD
:10F810000CBF6FF00F01002106A800F0BDF8E0B9A1
:10F82000DDE904235B1B34BF0121002100291CBF3B
:10F8300000230022CDE9082306A894E8060000F082
:10F84000C9F842AB93E8060006A800F0C3F844AA42
:10F85000469B06A806CA00F0CBF83CB0BDE8F08194
:10F8600042AB93E8030084E803000B2194E80C000A
:10F8700016A820F0D7FBBFE715203CB0BDE8F0810B
:10F880000809020082B010B586B008A9073081E8E7
:10F890000C0005D0012006B0BDE8104002B0704752
:10F8A00005A8DDE90E41DDE90C23CDE90110009446
:10F8B00023490A9820F0E0FA10F1850F32DA10F1AE
:10F8C000970F29DB9730112826D801A353F820F091
:10F8D0003BF9000019F9000037F9000019F90000A0
:10F8E00019F9000019F9000019F9000019F90000D0
:10F8F00019F9000019F9000033F9000019F90000A6
:10F9000019F9000019F9000019F9000019F90000AF
:10F9100019F9000095F80000172006B0BDE8104066
:10F9200002B070470028F7D1059B109AC2E9004346
:10F93000B1E71020AFE70D20ADE71220ABE700BF25
:10F940000906000682B000B587B008A9073018BFC5
:10F95000012081E80C0004D007B05DF804EB02B090
:10F96000704700230A9801A9CDE90133CDE903339B
:10F97000059320F0C7F928B1002007B05DF804EB2B
:10F9800002B07047BDF80620D308520718BF0133F4
:10F990000C9A5B001360EFE74FF6FF720C4B10B54B
:10F9A00011F1100F14BF11461946002303600446DD
:10F9B00020F0EEF9606038B110F1860F05D010F13B
:10F9C0008A0F14BF0420052010BD032010BD00BF06
:10F9D0000900000210B582B002AB03E906004368DB
:10F9E00023B919B1044620F0F7F9606002B010BDE8
:10F9F00070B582B002AC04E90600426842B112F16F
:10FA0000860F13D08A3214BF0420052002B070BDC7
:10FA10001D46019A04330E46044620F0FFF960604B
:10FA200002462E600028EAD102B070BD032002B069
:10FA300070BD00BF0346024A002012681A6070477A
:10FA4000A04B002008B520F007F9003818BF0120AE
:10FA500008BD00BF10F4004330B419D001224FF4A8
:10FA6000807140F202254FF400740020294BC3F846
:10FA70001052C3F81C22C3F8C420C3F81842C3F8BC
:10FA800000025965C3F800229965002030BC704718
:10FA9000C20520D51F48D0F80822002A29DB1E4CB9
:10FAA00025682260A5F5B711A1F2CB21B1F5957FAC
:10FAB0001FD8A2F5B711A1F2CB21B1F5957F18D8C7
:10FAC000521B9532B2F5957F13D84FF40032426540
:10FAD00082652360D9E78303D7D50E4BD3F8C020C6
:10FAE0000A2A11D00A214FF40032C3F8C0109A65D7
:10FAF000CBE7002001214FF48072064BC3F80002CF
:10FB0000C3F800129A65C0E7044A0120C3F89C209C
:10FB1000BCE700BF00100040184E002080841E800B
:10FB20002DE9F843344C206830B10123836000F0A4
:10FB300059FF002223689A600022304B304D314833
:10FB4000314CD3F808802A601F69D3F81490E46818
:10FB5000C5682E49A4B2ADB20C430D43EFF3148631
:10FB600016F002003ED082F31488BFF36F8F4FF07F
:10FB700070631046DB6C9847022383F31488BFF34D
:10FB80006F8F86F31488BFF36F8F1E4A1B4BD560AF
:10FB9000A2F50032D4601E4AC3F808801F61C3F882
:10FBA0001490D2F8843043F00503C2F8843001F099
:10FBB00033F91849184A0B6843F002030B60537875
:10FBC000FF2B14D053780133DBB2537001F030F9BE
:10FBD0004FF4004201200E4B10495A659A65087097
:10FBE000BDE8F8834FF07063DB6C9847CDE701F018
:10FBF0001FF912F0FFFDEBE7384E002000E002E0B5
:10FC00003C4E002000ED02E000ED00E00000FA05AF
:10FC100000100040BC4E0020C44E0020082D0020E3
:10FC20006B4B70B5DD6C2C045D65DD6500F18C807F
:10FC300015F00A0463D129074DD4664C236813B12B
:10FC40002846984710B9EB062ED470BD0026012037
:10FC50004FF080425E4B26605F49C3F8B000D36A24
:10FC60000C6843F00403D3622CB3A368DA061FD5F3
:10FC7000D4E90332002110209847C8B101F0CCF834
:10FC8000564B5A78002A00F099805A78013AD2B23D
:10FC90005A705B7823B9524A136823F00203136049
:10FCA00001F0C6F8EB06D0D5BDE8704012F0A2BD59
:10FCB0002468002CD9D101F0AFF84A4A136843F008
:10FCC0001003136001F0B4F8474B18680028D5D032
:10FCD00000F07EFED2E73E4C01F09EF8D4F8A4304E
:10FCE00023F00043C4F8A430D4F8A43043F0004318
:10FCF000C4F8A43001F09CF80823A3659DE7344BB9
:10FD0000D3F8842022F00102C3F88420D3F88420A1
:10FD100042F00502C3F8842001F07EF8304A1368EF
:10FD200043F0020313602D4A5378FF2B4BD05378D6
:10FD30000133DBB2537001F07BF84FF40042244BE7
:10FD40005A659A659C6576E74FF40031224A5965F9
:10FD50001468F4B1A368180718D5D4E90332002158
:10FD60000820984790B101F057F81C4B5A7802B31D
:10FD70005A78013AD2B25A705B7823B9184A13689C
:10FD800023F00203136001F053F851E72468002CBC
:10FD9000E0D101F041F8134A136843F008031360FF
:10FDA00001F046F8104B18680028DCD000F010FE77
:10FDB000D9E701F03DF812F01DFD39E701F038F800
:10FDC00012F018FD3FE701F033F812F013FDB4E72D
:10FDD00000100040CC4E0020404E0020C44E0020B9
:10FDE000BC4E00203C4E0020384E002070B584B040
:10FDF00001F012F82D4B1D7825B101F019F8002003
:10FE000004B070BD01241C7001F012F801A801F0CB
:10FE100043F8274A01AB132126488DF80C5001F016
:10FE20001FF803214FF4826018F0A8F94FF08040CA
:10FE300048F20A06426C204B2049214D42F48012C0
:10FE400042649E658C650C662C66D3F8842042F073
:10FE50000502C3F8842000F0DFFF1A491A4A0B6834
:10FE600043F002030B605378FF2B1AD05378013311
:10FE7000DBB2537000F0DCFF4FF4004210240E4B55
:10FE800012495A659A65D3F8A420132042F0004223
:10FE9000C3F8A420C1F8004800F0E0FF002004B03F
:10FEA00070BD00F0C5FF12F0A5FCE5E7806C0020F6
:10FEB00021FC00001C4E00200010004000200040EB
:10FEC00000200240BC4E0020C44E002000500040E4
:10FED00010F47F4308D1124BC0B21A181B5CD07FBC
:10FEE000DBB2C0B218447047B3F5807F0BD0B3F5D6
:10FEF000007F11D10B4BC0B21A181B5CD07BDBB258
:10FF0000C0B218447047084BC0B21A181B5CD079B5
:10FF1000DBB2C0B2184470476FF00100704700BFF9
:10FF2000784E0020484E0020684E002010F47F4399
:10FF300007D1104BC1EB41110B44C0B2185CC0B2E9
:10FF40007047B3F5807F0AD0B3F5007F0FD10A4B1D
:10FF5000C1EB01110B44C0B2185CC0B27047074B33
:10FF6000C1EBC1010B44C0B2185CC0B270476FF066
:10FF700001007047784E0020484E0020684E002057
:10FF8000034610B4034A044C002023605DF8044B80
:10FF900011607047C04E0020B84E0020844660B10A
:10FFA0005AB1084608B56146CCE90202CCF81030D7
:10FFB000034800F047FD002008BD6FF002007047C5
:10FFC000404E0020042838B518D8044600F024FF1D
:10FFD00001230C49A3400D680B4A2B430B60135DB2
:10FFE000FF2B08D00025135D0133DBB2135500F061
:10FFF0001FFF284638BD4FF0FF35F8E76FF00105C9
:020000021000EC
:10000000F7E700BFBC4E0020C44E0020042810B506
:100010001AD8044600F000FF0D4B1A5D8AB11A5D34
:10002000013AD2B21A551B5D33B901220949A240E7
:100030000B6823EA02030B60002400F0F9FE20465F
:1000400010BD4FF0FF34F8E76FF00104F7E700BF91
:10005000C44E0020BC4E002038B5044600F0DCFE43
:1000600014F47F43054610D12B4BE4B2185D1919E7
:100070001A5DC97FFF285FFA80FCD2B2C9B224D1D1
:10008000284600F0D5FE002038BDB3F5807F29D08A
:10009000B3F5007FF4D1214BE4B2185D1A19195D54
:1000A000D27BFF285FFA80FCC9B2D2B2E8D00CF153
:1000B000010C5FFA8CFC891803F804C0E0D101231D
:1000C000A34098B218F06CF8DAE70CF1010C5FFA73
:1000D0008CFCCA4203F804C0D2D10123104AA340C9
:1000E0005361CDE70F4BE4B2185D19191A5DC97958
:1000F000FF285FFA80FCD2B2C9B2C1D00CF1010C6A
:100100005FFA8CFCCA4203F804C0B9D10123044A47
:10011000A3409361B4E700BF784E0020484E002012
:1001200000000240684E002070B505460C4600F005
:1001300073FE15F47F43064612D12A4BC4EB4414D8
:10014000EDB21C44615D5A195B5DD27FFF29DBB2C1
:10015000D2B2C8B223D1304600F06AFE002070BD92
:10016000B3F5807F25D0B3F5007FF4D11E4BC4EBEF
:100170000414EDB21C44625D5819595DC37BFF2A1B
:10018000C9B2DBB2D0B2E6D00130C0B2C9186055F6
:10019000E1D10123AB4098B218F002F8DBE701305F
:1001A000C0B2D3426055D6D10123104AAB4053614F
:1001B000D1E70F4BC4EBC404EDB21C44615D5A1986
:1001C0005B5DD279FF29DBB2D2B2C8B2C3D00130B5
:1001D000C0B2D3426055BED10123044AAB40936103
:1001E000B9E700BF784E0020484E002000000240D2
:1001F000684E002070B5044600F00EFE14F47F43F4
:10020000054617D1254EE1B2725C02F0FF03002AC9
:100210003ED0013BDBB220467354FFF759FE18B9BC
:1002200001231F4A8B4013620024284600F000FE81
:10023000204670BDB3F5807F17D0B3F5007F2AD17B
:100240001849E6B28A5D02F0FF030AB3013BDBB254
:1002500020468B55FFF73CFE01460028E4D10120E3
:10026000B04080B217F0CAFFDEE70F4EE1B2725C19
:1002700002F0FF0362B1013BDBB220467354FFF78B
:1002800027FE0028D0D10123054A8B405362CBE7DB
:100290004FF0FF34C9E76FF00104C6E7784E002045
:1002A00000000240484E0020684E0020F8B5054688
:1002B0000C4600F0B1FD15F47F4306461AD12A4AD8
:1002C000C4EB4414E9B22244505C00F0FF03002860
:1002D00044D0013BDBB228465354FFF7F9FD18B96F
:1002E0000123224A8B4013620024304600F0A0FD17
:1002F0002046F8BDB3F5807F1AD0B3F5007F30D12A
:100300001B4BC4EB0414EFB22344D95D01F0FF0290
:1003100021B3013AD2B22846DA55FFF7D9FD01469A
:100320000028E1D10120B84080B217F067FFDBE779
:10033000104BC4EBC404EFB22344D95D01F0FF02BB
:1003400061B1013AD2B22846DA55FFF7C1FD002863
:10035000CAD10123054ABB405362C5E74FF0FF34C1
:10036000C3E76FF00104C0E7784E002000000240B0
:10037000484E0020684E0020F8B500F04DFD394B86
:10038000394A1B681168044611B112681268134398
:10039000D9070AD4354E3378012B0DD06FF0040500
:1003A000204600F045FD2846F8BD6FF003052046C5
:1003B00000F03EFD2846F8BD04232D4A3370156831
:1003C000002D33D0AB689A072DD5D5E90332002133
:1003D0000220984738B3274A274B12781D78AA4243
:1003E00098BF4FF0FF3C15D80020244F00E00A468C
:1003F000930003F1804303F544531B68511C9B0297
:1004000005D5FB6CD34013F0010F18BF0120AA42A1
:10041000EDD1F0B101234FF0FF352046337000F0ED
:1004200007FD2846F8BD2D68002DCBD1144D286856
:1004300030B10223836000F0D5FA00222B689A6065
:100440000C4A0D4B12781D78954205D34FF0000CE5
:10045000CAE7BCF1000FDDD14FF080434AF2A5524C
:100460009A60D7E7BC4E0020B84E0020082D00202F
:10047000404E002065150200641502000030024065
:10048000384E002072B64FF08042D36A43F0010329
:10049000D362FEE74FF08043186B20F400405628EB
:1004A00032D856282DD8DFE800F02E2E2E2C2E2CF8
:1004B0002E2C2C2E2C2C2C2C2C2C2C2C2C2C2C2C78
:1004C0002E2C2C2C2C2C2C2C2C2C2C2C2C2C2C2C6A
:1004D0002E2C2C2C2C2C2C2C2C2C2C2C2C2C2C2C5A
:1004E0002E2C2C2C2C2C2C2C2C2C2C2C2C2C2C2C4A
:1004F0002E2C2C2C2C2C2C2C2C2C2C2C2C2C2C2C3A
:100500002E004FF0FF307047B0F5003FFBD0B0F544
:10051000403F18BF4FF0FF30704700BF4FF080439F
:100520000122DA60704700BF70B5012002241E4B23
:100530001E4A1F49C3F8C040C3F89000116000F084
:100540006BFC1C491C4A0B6823430B605378FF2B40
:1005500025D053780133DBB2537000F069FC00F012
:100560005BFC114B5A6C12F4004214D101214FF480
:10057000807440F202264FF40075C3F81062C3F88D
:100580001C12C3F8C410C3F81852C3F800225C65EB
:10059000C3F800129C65BDE8704000F049BC00F053
:1005A00047FC12F027F9DAE700100040CC4E00209B
:1005B00055FA0000BC4E0020C44E0020344BD3F846
:1005C0004031DA0760D4334B98420BD0324B98421B
:1005D00049D0A3F18B73A3F5A633984233D06FF0C3
:1005E000010070474FF09C4292F85303B2F8523327
:1005F00092F852232949C0F34000C3F3431302F099
:100600001F025B0110B443EA4023254C1343204AE8
:100610006382D2F8443103F040430B43C2F84431C3
:10062000D2F8403143F00503C2F84031936C1B030C
:10063000FCD5D2F84431002043F000435DF8044B70
:10064000C2F8443170474FF09C4292F85103B2F81F
:10065000503392F850231349C0F34000C3F34313BF
:1006600002F01F02CDE74FF09C4292F85503B2F81A
:10067000543392F854234FF0FA61C0F34000C3F3AF
:10068000431302F01F02BCE74FF0FF30704700BF7A
:1006900000100040002062050000DC05E9DE800853
:1006A000001100409A999909064BD3F8442122F091
:1006B0000042C3F84421D3F8402122F00102C3F8DC
:1006C0004021704700100040B0F5803F09D200F48F
:1006D0007F43B3F5807FC0B20FD0B3F5007F07D062
:1006E0000BB1002070471E288CBF002001207047EE
:1006F0000E288CBF00200120704706288CBF0020E8
:100700000120704710B500F087FB0022034B1C68E6
:100710001A6000F08DFB204610BD00BF3C4E00204B
:10072000064A08B5106010B1054B1B680BB90020D4
:1007300008BD00F04DF9002008BD00BF384E002074
:100740003C4E00202DE9F047064686B0EFF390843A
:10075000012383F39088EFF3108783F31088634DB0
:10076000634A2968136813B113681B681943614B06
:100770005B68C3F308334BB187F310884FF0000A6E
:1007800084F39088504606B0BDE8F08701F004007D
:1007900089071AD50028EFD187F31088EFF39086E8
:1007A000012383F3908853482B68116811B11168B5
:1007B00009680B435B0772D430BF4368C3F3083347
:1007C000002BF1D086F39088D8E74B49D1F8C030A0
:1007D00003F00303012B6BD06FF4FA78DFF838C114
:1007E0004649DCF80431F31A43448B42D2D8444AD8
:1007F0004449136901A823F0010313611422DCF8B2
:100800004480DCF8449117F04DFD042140F244404F
:1008100017F0B4FC202000F013FB3B4B963E5E62C9
:100820003A4E3568002D4BD0AB68D90745D5D5E990
:10083000033200210120984700283ED001224FF0CA
:10084000FF3A334B1A7001222F4B3249DA602020D5
:100850005A650B6800F0F4FA232140F244402E4D13
:1008600017F08CFCD5F84031012BFBD1142201A9E3
:10087000244817F017FDC5F84491C5F8448017F0D7
:10088000EBFC356825B3AB685A071ED5D5E90332B2
:10089000002104209847C0B187F3108870E74368AF
:1008A000C3F30833002B3FF47FAF86F3908865E7EE
:1008B0008B6C9B037FF560AF8EE72D68002DB3D165
:1008C000FFF72EF94FF0000ABDE72D68002DDAD1B1
:1008D000124D28680028DFD00423836000F082F8DE
:1008E00000222B689A6087F3108849E7BC4E0020ED
:1008F000B84E002000ED00E0001000400AFEBFFFEF
:1009000000E002E04C21024000200040404E002068
:10091000082D00200030004000200240384E00200A
:1009200010B4EFF3908C012383F390880F4C10499F
:10093000104823680A6812B10A68126813435B07FB
:100940000AD430BF4368C3F30833002BF1D08CF3D3
:1009500090885DF8044B70474368C3F30833002B5D
:10096000E7D08CF390885DF8044B7047BC4E0020B4
:10097000B84E002000ED00E040F661010C4A08B5D9
:100980000C48D2F8183103400B43C2F81831D2F8A2
:100990001C3103400B43C2F81C31FFF727FAFFF765
:1009A000C3FD4FF08042536943F00103536108BD1A
:1009B0000010004000F0FFFF08B510F0E1FF11F05B
:1009C00045FA4FF000414FF0FF3017F003FDF8E714
:1009D0000346012202491A7308681FF015BD00BFC3
:1009E000200902000346002210B50469806824F043
:1009F00001041A7364086400214622462346B7EEB8
:100A0000000AF7EE000AB7EE001AF7EE001AB7EE8A
:100A1000002AF7EE002AB7EE003AF7EE003AB7EEFA
:100A2000004AF7EE004AB7EE005AF7EE005AB7EE6A
:100A3000006AF7EE006AB7EE007AF7EE007A1FF070
:100A4000E3FD10BD38B505460C4600F0E5F900227F
:100A50006B68C4E900232BB11C606C60BDE83840B2
:100A600000F0E6B92C606C60BDE8384000F0E0B9F9
:100A700038B50C46054600F0CFF9D4E9002332B171
:100A800053603BB11A60BDE8384000F0D1B96B60EB
:100A9000002BF7D12A60BDE8384000F0C9B900BF8B
:100AA00038B50A4C0846256802F07AFA2368196AB4
:100AB000E86129B1084601F073FD002223681A623B
:100AC0001846BDE83840FFF783BF00BFD04E002076
:100AD00038B50A4C0846256802F062FA2368196A9C
:100AE000E86129B1084601F05BFD002223681A6223
:100AF0001846BDE83840FFF76BBF00BFD04E00205E
:100B000038B50A4C0846256802F04AFA2368196A83
:100B1000E86129B1084601F043FD002223681A620A
:100B20001846BDE83840FFF753BF00BFD04E002045
:100B300038B50A4C0846256802F032FA2368196A6B
:100B4000E86129B1084601F02BFD002223681A62F2
:100B50001846BDE83840FFF73BBF00BFD04E00202D
:100B600038B50A4C0846256802F01AFA2368196A53
:100B7000E86129B1084601F013FD002223681A62DA
:100B80001846BDE83840FFF723BF00BFD04E002015
:100B900038B50A4C0846256802F002FA2368196A3B
:100BA000E86129B1084601F0FBFC002223681A62C3
:100BB0001846BDE83840FFF70BBF00BFD04E0020FD
:100BC00038B50A4C0846256802F0EAF92368196A24
:100BD000E86129B1084601F0E3FC002223681A62AB
:100BE0001846BDE83840FFF7F3BE00BFD04E0020E6
:100BF00038B50A4C0846256802F0BAF92368196A24
:100C0000E86129B1084601F0CBFC002223681A6292
:100C10001846BDE83840FFF7DBBE00BFD04E0020CD
:100C20000846A3F10201B1FA81F138B5094C49092E
:100C3000256802F03DF92368196AE86129B1084680
:100C400001F0AEFC002223681A621846BDE8384065
:100C5000FFF7BEBED04E00200846A3F10301B1FA53
:100C600081F138B5094C4909256802F04FF923682C
:100C7000196AE86129B1084601F092FC0022236854
:100C80001A621846BDE83840FFF7A2BED04E0020D9
:100C900038B50A4C0846256802F0FEF82368196A40
:100CA000E86129B1084601F07BFC002223681A6242
:100CB0001846BDE83840FFF78BBE00BFD04E00207D
:100CC00010B58CB00021242203A817F029FB4FF4A3
:100CD000A053094A09490A4C05A8029104920693B7
:100CE000079401F0B9FC012302A801A9039307F0BE
:100CF000A9FA0CB010BD00BF5D81FF7F1271000129
:100D000009060006F0B58BB028220021684617F0CE
:100D100007FBFFF731FE01F0D9FB002861D100F09D
:100D2000F1F800286AD107F009FB002863D1694671
:100D3000364802F0B7FE002856D14FF0004017F0B9
:100D400091FB4FF0005017F08DFB4FF0804017F0F3
:100D500091FB2F4C2F4E4FF000414FF0FF3017F01A
:100D600039FBC3060FD52146102017F03BFB236843
:100D700053B345F6F022934208D06FF080016068CB
:100D800017F050FBE7E717F055FBE4E7D4E9015310
:100D9000002B37DA2369042B34D132460021284650
:100DA00017F028FB03461722042B4FF0AC013068E4
:100DB0000CBF00276FF080071FF07CFB08B339469B
:100DC000284617F02FFBC6E7A068C00F02F0CEFD43
:100DD0002046656801F09AFC0146284617F022FB80
:100DE000B9E717F027FB9AE7FFF76AFF0028A4D0BE
:100DF00017F020FBA1E717F01DFB98E717F01AFB8F
:100E000091E730606FF08007D9E700BF5D81FF7F19
:100E1000D44E0020D04E0020EFF39080EFF31083EB
:100E2000012282F3908872B643EA0020704700BF27
:100E3000C30700D462B6000A80F39088704700BFF1
:100E40001FF014BB1FF0C8BA034B53F8203013B186
:100E5000D3E9012010477047044F00201FF0A4BAC7
:100E600010B5044648B153B118681B7AC4E9012093
:100E7000084A216042F821403BB9204610BD054890
:100E8000626040F82140A360216008461FF08CFAA0
:100E9000204610BD044F002030B100214FF0FF323A
:100EA0000123016042600372704700BF00B5EFF399
:100EB0009083EFF3108C4FF0010E8EF3908872B692
:100EC0001CF0010FC0E901124CEA032300D162B605
:100ED0001B0A83F390885DF804FB00BF704700BFD6
:100EE0004FF0FF3108B5034807F062FCB0FA80F01C
:100EF000400908BDD04F0020014807F063BC00BF87
:100F0000D04F002038B5184D2B7813B1002420465F
:100F100038BD00F0E7FA0446F8B900F067FA214658
:100F2000204600F067FCD8B118F038FE044600F007
:100F30008DFC002CEBD117F0C5FA70B90B4C94F86E
:100F4000503013B101232B70E0E70121204607F058
:100F500029FC012384F85030F4E76FF08304D6E7CE
:100F60006FF0F904D3E700BF816C0020D04F002060
:100F70002DE9F047DFF8948088B004AE86E80300DE
:100F80004FF0FF31404691461F46DDF840A007F084
:100F90000FFC80BB012388F851307FB3CAF80000F2
:100FA000054696E8030007AA19F09EFD044658B1CD
:100FB00010F1FA0F88F851501DD0404607F002FC9E
:100FC000204608B0BDE8F0870146DDE91123CDE9F0
:100FD000017A0798CDF800901AF0B8F8044696E820
:100FE000030019F04FFE002818BF044614F1FA0F51
:100FF00088F85150E1D16FF0F904E1E740466FF015
:10100000890488F8517007F0DDFBD9E7D04F002044
:101010002DE9F0431E4F89B004AD85E803004FF081
:10102000FF3138469046994607F0C2FB60BB01236A
:10103000064695E8030007AA87F8513019F054FDD9
:10104000044658B110F1FA0F87F851601CD03846A9
:1010500007F0B8FB204609B0BDE8F0834A46414698
:10106000CDE90100109B009007981AF06FF8044634
:1010700095E8030019F006FE002818BF044614F195
:10108000FA0F87F85160E2D16FF0F904E2E700BF90
:10109000D04F00202DE9F04F9046282295B005460C
:1010A0004FF0FF3A0F460DEB02000021059317F0B9
:1010B00037F90023394CD5F808B051462046CDF811
:1010C00024A00793CDF820B007F072FB78B9012275
:1010D00008AE814696E8030084F851200AAA1AF067
:1010E000B3FF10F1FA0F84F85190049005D16FF01E
:1010F000F903184615B0BDE8F08F204607F062FBF3
:10110000049B002BF5D10AA807F078FB04460AA837
:1011100007F072FB2B78000A082B11D088B1012848
:1011200038D11F99CDE908BA00911E9B059A96E81F
:101130000300FFF76DFF0346184615B0BDE8F08FBA
:1011400028BB1F99CDF820B002911E99434601910A
:101150004FF0FF31099107A900913A4696E8030044
:10116000FFF706FF03460028C3D107994CB104F1ED
:101170001F0252090132B1EB820FBAD0B1EBC20F9C
:10118000B7D06A688A4218BF6FF08303B1E76FF087
:101190008403AEE76FF08503ABE700BFD04F0020BC
:1011A000F0B58FB06D462A4F85E803002822002154
:1011B00004A817F0B5F84FF0FF31384607F0F8FAF9
:1011C000E8B90123064695E8030004AA87F85130E0
:1011D0001AF03AFF044668B9059B1A0A012A2FD172
:1011E000DBB2802B24D095E8030003AA19F07CFC25
:1011F000044638B114F1FA0F87F8516012D16FF03C
:10120000F90412E0039819F025FD044695E803005F
:1012100019F038FD002818BF044614F1FA0F87F8BA
:101220005160ECD0384607F0CDFA20460FB0F0BD43
:10123000384687F8514007F0C5FA20460FB0F0BD98
:10124000384687F8514007F0BDFA6FF08604ECE7A6
:10125000D04F0020F0B583B06D46124E85E80300F4
:101260004FF0FF313046174607F0A2FA70B901235C
:10127000044695E803003A4686F851301AF0E4FE39
:1012800010F1FA0F86F85140044604D16FF0F904CA
:10129000204603B0F0BD304607F094FA204603B074
:1012A000F0BD00BFD04F002010B51CF05DFD04461E
:1012B0002920FFF7C5FD2920FFF7C4FD21460E4870
:1012C0001CF026FD00200D4A0D4992F800320870EE
:1012D000022B0BD0012B00D010BDD2F80432002B12
:1012E000FAD0BDE81040D2F8080218470548BDE81A
:1012F000104007F067BA00BF1035002010340020FE
:10130000836C00205850002010202F4930B5D1F8B0
:10131000FC332E4A23F4E06323F0010343F44073CB
:1013200043F00103C1F8FC3383B090611369D80620
:10133000FCD54FF0004540240021254B254A264886
:10134000C3F8102F254A55605460D3F8002F42F09F
:101350000402C3F8002FC3F8081FD3F8102F22F09F
:101360008802C3F8102F1CF021FB40B1FF24032397
:10137000012269460094ADF804301CF0B9FF144A0C
:10138000D2F8003FD907FBD44FF0BE450120144BE3
:10139000144C0F491D605C60C2F8000FD1F8003F8B
:1013A0009B07FBD50E4B1B68002B09DB002318465F
:1013B0000D4A13700222064BC3F8002F03B030BD54
:1013C0004FF0FF30F6E700BF00400240000002404F
:1013D00000300F40FCFCFFFF2809020000300540F0
:1013E00000000F4047365A4F826C0020F0B585B0A0
:1013F000FFF712FD124E0446357825B12046FFF75F
:1014000017FD05B0F0BD4FF0FF3701A8FFF744FD11
:101410000C4A01AB29210C488DF80C500297FFF7BC
:101420001FFD0121094807F0BDF92946084807F0CA
:10143000B9F9012320463370FFF7FAFC05B0F0BD7F
:10144000846C0020A91201003C500020A85000200C
:1014500058500020164803780BB10020704770B434
:10146000144AD2F8003FD907FBD44FF09E4601241E
:10147000114B124D0F491E605D60C2F8004FD1F84C
:10148000003F9A07FBD50C4B1B68002B0DDB022499
:1014900010230B4AC1F8004F53621369DB06FCD4DA
:1014A00001230370002070BC70474FF0FF30FAE753
:1014B000826C002000300F4000000F4047365A4F2A
:1014C00000000240012804D0043818BF4FF0FF305C
:1014D000704708B5FFF7BEFF003818BF0120404233
:1014E00008BD00BFF8B5454C237833B1444D4FF4E7
:1014F0008270FEF7B1FD2868F8BDFFF78DFC102162
:10150000404AD2F8FC3323F4E06323F0010343F4B0
:10151000407343F00103C2F8FC33A2F580429161AD
:101520001369DF06FCD54FF0004640250021364BFD
:10153000364A374FC3F8107F56605560D3F8002FF6
:1015400042F00402C3F8002FC3F8081FD3F8102F8D
:1015500022F08802C3F8102FD3F8E02F8A4238DB3C
:10156000D3F8E02F160212D5FFF762FC1CF0CAFB7D
:101570000646002834D04FF0FF33214D2B60012167
:10158000244A23781170002BB1D12868F8BDD3F814
:10159000002FD507FBD44FF04F4501211E4A15609F
:1015A0001E4D556002F54052C3F8001FD2F8003FAF
:1015B0009907FBD5184B1B68002B1BDB0225184B2A
:1015C0001149C2F8005FD1F8E02F1202CCD4013BE0
:1015D000F9D14FF0FF330A4D2B60FFF729FCCEE71E
:1015E0000121074D03460F4A0F482170FEF7D6FC34
:1015F0002E60C4E70223C2F8003FEAE7856C0020B2
:10160000385000200040024000300F4000300540BC
:10161000FCFCFFFF092D002000000F40465772031D
:10162000FFFF0F00C51401002450002070B50021F9
:10163000654807F0BDF818B16FF00304204670BD8F
:101640000646624C01464FF480722046C4F8086298
:1016500016F066FE4FF480725D4D3146A01816F00C
:101660005FFE2B78002B40F0A6800120FEF7AAFC3D
:10167000584B59491A78594B012A08BF1946584AFC
:10168000536843F00403536002F52022D2F8003F70
:10169000DB07FBD44FF01740524B534E186001202C
:1016A0005E609960C2F8000FD2F8003F9E0709D42F
:1016B0004B4A4E49536843F008035360D1F8003F4A
:1016C0009807F7D5474A136813F0FF0361D01668EF
:1016D00000220221454BC4F80822414AC3F8001FEA
:1016E0005368394823F00403536007F06BF8F6B2EF
:1016F0000120FEF78BFC872E63D10021324807F0D2
:1017000057F80646002897D101464FF48072C4F876
:1017100008022E4816F004FE4FF480723146344819
:1017200016F0FEFD2B78002B48D10120FEF74AFC75
:101730002E4AD2F8003FD907FBD401234FF03C508A
:1017400028490860C2F8003FD2F8003F9A070AD43F
:10175000234A01F54051536843F008035360D1F820
:10176000003F9B07F7D500221E4B02251B681F492F
:10177000DBB29B1A18BF0123C1F8005F1248C4F8FE
:1017800008225C4207F01EF80120FEF73FFC2046CD
:1017900070BD02261549124AC4F80832C1F8006F1C
:1017A0005368094823F00403536007F00BF8012045
:1017B000FEF72CFCA1E7FFF7A7FD56E7FFF7A4FD16
:1017C000B3E74FF0FF3439E7A85000201034002071
:1017D000826C0020092D0020040002001400020089
:1017E0000030054000000F4047365A4F00300F4090
:1017F00010350020024670B511480D46114606F01E
:10180000D7FF08B1002070BD0E4E014604464FF4CC
:1018100080723046C6F8085216F082FD4FF480728E
:101820002146B01816F07CFD074B1B7823B9012028
:10183000FEF7C8FB012070BDFFF766FDF7E700BFAC
:10184000A850002010340020826C0020002208B52F
:10185000054B0648C3F8082206F0B4FFBDE808406F
:101860000120FEF7D3BB00BF10340020A850002099
:1018700038B51D4B1B789BBB1C4BD3F808429442D8
:101880002BD1042883F80002C3F804124FF029007A
:1018900014D0FFF7D5FA2920FFF7E0FAFFF7BCFADA
:1018A000054612481CF030FA044668B90122104B74
:1018B00028461A70FFF7BCFA204638BDFFF7C0FA79
:1018C0002920FFF7BFFAE9E72846FFF7B1FA2920F8
:1018D000FFF7B6FA2920FFF7B5FA4FF0FF34EBE730
:1018E0006FF00204E8E700BF826C00201034002093
:1018F000836C002010B5184C94F80032022B1BD0DA
:10190000042B04D0012B15D04FF0FF3010BD04F58F
:1019100080701CF031FA0022104B0E301A7017D074
:1019200094F80032042B10D1D4F8043213B1D4F857
:1019300008029847002010BD4FF0FF31084806F01C
:1019400037FF94F80032042BEED0022BECD0F1E7F5
:101950006FF0010010BD00BF10340020836C002028
:101960005850002070B5144EFFF756FA3478FCB189
:1019700005462920FFF764FA2920FFF763FA284675
:10198000FFF756FA0D481CF0F7F9014600230E3117
:101990000CBF6FF001041C46094A0A483370C2F8B4
:1019A000083206F00FFF0120FEF730FB204670BD25
:1019B000FFF73EFA204670BD836C002010350020F2
:1019C00010340020A8500020084BD3F80031002B21
:1019D0004FEA136003F4803206DA00F07F004042E1
:1019E0001AB920F48030704710437047103400203B
:1019F000014BD3F8040170471034002003460A4617
:101A0000014802211CF0D4BB103500200A460149D0
:101A100016F048BC28350020034610220221014858
:101A20001CF0C6BB1035002003460A4601480221BF
:101A30001CF0BEBB1035002030B44FF08E450024A2
:101A4000034B1D605C61C3E9032130BC98607047A3
:101A500010340020D0B40F4606464FF0B854002191
:101A6000054BC2F30902C3E902671C601A615961A0
:101A70009961D0BC704700BF1034002010B44FF003
:101A8000000C4FF01C540A4BC1F3090141F00061F6
:101A90001C6018615DF8044B9A60C3F814C0C3F869
:101AA00018C0C3F81CC0C3F820C0D960704700BF7D
:101AB000103400204FF05C52014B98601A60704760
:101AC00010340020F8B590F8F73004465A1ED2B210
:101AD000022A2DD8284901338E5C03F0010294F8C4
:101AE000F6302068D4F8E470D4F8EC1003F00F035B
:101AF00008B3C81C20F003000AB943F010034FF0EC
:101B0000985C00221D4DC5E902176861C5F800C048
:101B10002A610EB943F02003AB61D4E901322A6295
:101B200003B1EB610023D4F8D420C5E90A23F8BD42
:101B300001263246D3E70AB943F010034FF0905024
:101B400000220E4DC5E90217696128602A610EB9AD
:101B500043F020030026AB6104F10C02D4F8F0300E
:101B60000E210648EE611CF0EFFA0023D4F8D420D1
:101B7000C5E90A23F8BD00BF78090200103400202F
:101B800002464FF0C853F0B51B480024036092F89A
:101B9000B630B2F8B2C0022B0CBF072606260CF1F5
:101BA0001F0C164DB2F8B4304FEA5C1C5FFA8CFE85
:101BB0000CF1010C073305EACC4CD2E90175C0E900
:101BC000064CC0E90844C462C3F3C7040EEB0E2EF2
:101BD00044F0804446EA0E46C46002F110044561B8
:101BE0008660076184620C21BDE8F040D2F8C42011
:101BF000DB081CF0A9BA00BF103400200000FF0F62
:101C000070B4037FC46A022B4FF00001C38908BF80
:101C1000066B856B0CBF002400264FF0C8501F33A5
:101C2000C3F3471303EB0323084A1B0443F00103E8
:101C3000C2E904659461C2E9071170BCC2E90911E7
:101C400093601060D160D162704700BF10340020F3
:101C50004FF0C85290F80CC00021BCF1080F0CBF27
:101C60004FF02A0C4FF0160C0E4B10B41A60C289BC
:101C70000D4C1F32C2F3471202EB02224CEA024221
:101C80009A60C26AC3E90711C3E90911DC60D9622D
:101C9000446B016B1A61826B1C63C3E905215DF81B
:101CA000044B7047103400200401008038B5124CFA
:101CB00005464FF480720021204616F031FB4FF4A8
:101CC00080720021A01816F02BFB4FF41012002395
:101CD0004FF0C8510948E26105F15002C4E90833E8
:101CE000A060E360A86AA262EA6AE3622B6B2061EB
:101CF0002160A261636138BD103400202B00080808
:101D000038B5134C05464FF480720021204616F07A
:101D100007FB4FF480720021A01816F001FB00238E
:101D20004FF0C8520B49E360A160A96AC4E90933C6
:101D3000E362B5F848302161C3F30B03E3612B6B19
:101D4000226063616B6BA3616B6C236238BD00BF63
:101D5000103400202D000808F8B50E4C0D4606463C
:101D6000174600214FF48072204616F0D9FA4FF43E
:101D700080720021A01816F0D3FA00234FF0905281
:101D800023613523C4E90256C4E90553E7612260A3
:101D9000F8BD00BF1034002038B5154C05464FF48F
:101DA00080720021204616F0BBFA4FF480720021A9
:101DB000A01816F0B5FA00234FF0C8520D49E360A1
:101DC000A1606362E96AE362B5F848302161C3F358
:101DD0000B0343F49003E36105F15003A3622B6B03
:101DE000226063616B6BA3616B6C236238BD00BFC3
:101DF000103400203000080870B50546134C4FF42D
:101E00008072002120462E6916F08AFA4FF4807203
:101E10000021A01816F084FAF368686C2363AB6B9A
:101E20000821A361B5F848304FF0C852C3F30B0343
:101E3000C4E9073000230648C4E90433C4E90201B9
:101E400022606362A362E362636370BD10340020AA
:101E5000310008082DE9F047044682B0E76F894653
:101E6000904600214FF480724F4816F059FA4FF413
:101E7000807200214D4816F053FA7B1E0E2B2379F9
:101E800098BF1027222B00F08480282B19BF6FF0F9
:101E90000F0A0026A668A6F1100A4FF08072424D84
:101EA0004FEA09332A60626A43EA482343F48043D5
:101EB000EA60A26A43F07003AA61226AEB62D4F876
:101EC0008C306F612F626A62AB60B9F1000F02D093
:101ED000D4F8F4302B63B8F1000F5ED0D4F8F430AE
:101EE0006B6394F89830012B12D0082B0BD8012289
:101EF00002FA03F313F4AA7F07D094F89920216B18
:101F00002B4816F0CFF9EA6A05E013F0A80FFAD0D3
:101F1000EA6A42F40042BAF1100F8EBF0021254B4D
:101F200053F82A1094F899301B0603F0F853134322
:101F30000B43EB622379222B25D0D4F8F020D4F880
:101F4000F8300192C3B104221B480DEB020116F0D8
:101F5000A9F9EB6A43F48073EB624FF08072D4F816
:101F60008810D4F8F43069662A6413B1D4F880304C
:101F7000AB6602B0BDE8F087324604F19B010E4823
:101F800016F090F9E9E73246A1680B4816F08AF995
:101F9000E3E7E668A6F1100A7FE794F89A20E16A81
:101FA000064816F07FF99CE7103400201035002019
:101FB00094340020340902005434002044340020BA
:101FC0002DE9F047044682B0E76D8946904600212E
:101FD0004FF48072544816F0A3F94FF48072002138
:101FE000524816F09DF97B1E94F804C00E2B98BF42
:101FF0001027BCF1220F00F08D80BCF1280F19BF13
:102000006FF00F0A0026A668A6F1100A4FF0807341
:10201000454D4FEA09322B60636A42EA4822EB6081
:10202000A36A42F48040AB61236A40F050006B62C7
:10203000E36E6F612F62AB60E862B9F1000F02D00E
:10204000D4F8E4302B63B8F1000F02D0D4F8E430B8
:102050006B6394F87C30012B48D0082B0ED80121FB
:1020600001FA03F313F4AA7F3DD094F88020216B8A
:102070002F4816F017F9E86A94F804C0BAF1100F67
:102080008CBF00212B4B94F8802098BF53F82A1066
:1020900094F8813012061B0503F4700302F0F85225
:1020A000134303430B43BCF1220FEB6236D0D4E958
:1020B0003A230192FBB104221F480DEB020116F0F6
:1020C000F1F8EB6A43F48073EB6294F88120E2B993
:1020D000A26ED4F8E4306A6613B1D4F8D430AB669B
:1020E00002B0BDE8F08713F0A80FC7D042F440401B
:1020F00040F05000C2E732460F4804F1820116F06A
:10210000D1F894F88120002AE2D0E16A0B4816F059
:10211000C9F8DDE7E668A6F1100A77E73246A1685C
:10212000054816F0BFF8D0E7103400201035002025
:1021300094340020340902005434002084340020F8
:102140002DE9F043036A90F804C0DF68BCF1220F68
:1021500007F1030683B026F00306D3E901893FD0D7
:10216000BCF1280F31D090F8285005F0FB03022B6A
:102170004BD06FF00F020023043D18BF0125ED0383
:102180004FF0807E254C102AA760C4F800E005D8E7
:10219000DFF890E05EF8222045EA0245BCF1220F0C
:1021A000E56221D0426C0192826C1ABB1A461C482F
:1021B00016F078F80023C4E90579C4F80C8026628B
:1021C0002361E36103B0BDE8F0838368A3F11002EB
:1021D00090F8285005F0FB04022CCDD10025CFE764
:1021E000C368A3F11002F3E70A460C4811211BF063
:1021F000ABFFDFE704220A480DEB020116F052F8AC
:10220000E36A43F48073E362D4E700234FF0807203
:10221000024CA7602260E362C4E700BF10340020D4
:10222000543400207C0902002DE9F041866B0446FD
:1022300000790F3626F00F062228B04682B047D02C
:1022400028283AD094F8485005F0EF03022B54D0D8
:102250006FF00F020023222D48F2200708BF20272D
:102260004FF0807C294D102AAE60C5F800C005D81B
:10227000DFF8A0C05CF8222047EA02472228EF627C
:102280002AD0226D0192626D62BB1A46204816F078
:1022900009F804F1200210230D211C481BF054FF03
:1022A000D4E90C32EB6000236E61AA61C5F820808E
:1022B0002B61EB6102B0BDE8F081A368A3F11002CD
:1022C00094F8485005F0EF07022FC4D12027C7E744
:1022D000E368A3F11002F3E70A460C4811211BF052
:1022E00033FFD6E704220A480DEB020115F0DAFFAE
:1022F000EB6A43F48073EB62CBE74FF08073034DDE
:102300002B602023AE60EB620023BAE7103400207C
:10231000543400207C090200F0B5476C90F804C0EA
:10232000FE1CBCF1220F044683B026F0030646D003
:10233000BCF1280F38D090F8400000F0FB03022BCE
:1023400052D06FF00F0E0023042848F2100008BF8F
:1023500010204FF08072294DBEF1100FAF602A603F
:1023600004D8274A52F82E2040EA0240BCF1220F3E
:10237000E86228D0E26C0192226D52BB1A462148D5
:1023800015F090FF04F1200210230D211B481BF0D3
:10239000DBFED4E90C32EB6000236F61AA612E6290
:1023A0002B61EB6103B0F0BD8368A3F1100E94F8CC
:1023B000400000F0FB02022AC6D11020C9E7C36822
:1023C000A3F1100EF3E70A460C4811211BF0BCFEE6
:1023D000D8E704220B480DEB020115F063FFEB6A0E
:1023E00043F48073EB62CDE74FF08073034D2B60B5
:1023F0001023AF60EB620023BCE700BF1034002065
:102400007C09020054340020F8B505460C461646F7
:1024100000214FF4807223482F6D15F081FF4FF497
:1024200080720021204815F07BFF95F84930022B7F
:102430002B6D1ED00F2B25D908224FF0000C4FF02A
:102440009851184B84F0010486F00106240144EAF7
:1024500046141960E96C1443082AD9609C61D5E9D7
:1024600015019F60C3E907015F6108BFC3F828C079
:10247000F8BD0F2B4FF0090210D8C7F1100C4FB167
:102480001027DCE78021EA6CC7F1100CD154082238
:10249000002FF5D167464FF00F0CD0E74FF0000C3E
:1024A000CDE700BF103400201035002010B400220A
:1024B0004FF08064044B89B21C60C3E903025DF8ED
:1024C000044B9960704700BF1034002008B54FF4EA
:1024D000F8620021024815F023FF002008BD00BF6C
:1024E000F85000200023F0B583B001930B68002B57
:1024F0004DD11446002A4DD00646136001A80D4662
:1025000000F0AAF8C8B9254B1A6862B3D3F8F820CE
:102510005AB3D3F8F0215AB3D3F8E8225AB3D3F818
:10252000E02362B1D3F8D82442B3D3F8D02542B324
:10253000D3F8C82642B36FF0840003B0F0BD05277E
:1025400004224FF0010CC2EB4212D10043F801C04B
:102550000C3103EBC2020B440199966051602F606D
:10256000236003B0F0BD0127EBE702270122E8E773
:1025700003270222E5E704270322E2E706270522D4
:10258000DFE707270622DCE708270722D9E76FF0F5
:102590008800D2E76FF08600CFE700BFF850002038
:1025A0000023F0B5046883B0013C072C019303605D
:1025B0001ED801A800F050F80546B0B90F4EC4EB84
:1025C0004414E700F35906EBC404012B10D16268F0
:1025D000019B9A420CD107F10C00EC2229463044B1
:1025E00015F09EFEC4E90155F551284603B0F0BD33
:1025F0006FF08605284603B0F0BD00BFF8500020FC
:10260000002370B54C1E82B0072C01931BD81546D1
:10261000EAB1064601A800F01FF890B90D4AC4EBD4
:102620004414E300D15802EBC40401290BD1A16882
:10263000B14208D1646801998C4204D10C3313442F
:102640002B6002B070BD6FF0880002B070BD6FF0FB
:102650008600F6E7F85000200346024A0020126880
:102660001A607047B8580020002110B582B0CDE93B
:1026700000111146D0E90042302A3ED194F82C20B6
:102680000346022A35D01AB900F002FC02B010BD90
:102690001D4824680068013ACDE90040072A2FD878
:1026A000DFE802F022271D18130E090418466A46B7
:1026B00000F050F9EAE718466A460DF0D3FBE5E76B
:1026C00018466A460DF07CFBE0E718466A460DF0B6
:1026D00049FADBE718466A460DF000FCD6E71846D3
:1026E0006A4600F015FBD1E718466A4600F002FA88
:1026F000CCE718460DF0D0FCC8E76FF08000C5E7C6
:102700006FF08500C2E700BFB85800202DE9F04304
:102710009DB0044620220021684615F001FE2022CB
:1027200000210DEB020015F0FBFD3022002110A866
:1027300015F0F6FDE3698BB9A369002B40F0BD806D
:102740006369002B40F0D0802369002B40F0E480C7
:102750006FF0830948461DB0BDE8F083E36A002BA3
:1027600040F0F280A36A4FF00408002B40F0CC80C8
:10277000636A02271BB9276A003F18BF012730236D
:102780000021606810AA15F035FE3028E0D110ABAA
:10279000B8F1010FCDE9003014D060690390002832
:1027A0005BD1B8F1020F02900CD0A069059000280F
:1027B0005DD1B8F1040F049061D1E0690790002861
:1027C00071D10690002F5ED0206A099000283FD179
:1027D000012F089012D0606A0B90002842D1022F7E
:1027E0000A900BD0A06A0D90002857D1042F0C90AE
:1027F00004D1E06A0F9000285AD10E90A268544B81
:1028000041461A60684608AA3B461646FFF72CFF69
:1028100000258146336823B129467268606815F047
:1028200049FE0135AF4206F10806F3D1B8F1010FB8
:1028300090D001255DF835301BB12946606815F050
:1028400029FE01354545F5D148461DB0BDE8F08368
:102850000021606815F026FEBAE70121606815F0D6
:1028600011FE9EE70121606815F01CFEB7E702210A
:10287000606815F007FEB8F1040F04909DD04FF08A
:102880000308002FA0D1A06831493B46086008AA80
:1028900041466846FFF7E8FE8146C7E702216068C7
:1028A00015F000FEA2E70321606815F0EBFD88E754
:1028B0000321606815F0F6FD9FE7E36A03BBA36A96
:1028C0004FF00308002B3FF453AF0327B8463023E3
:1028D0000021606810AA15F08DFD30287FF438AF14
:1028E00010ABCDE9003058E7E36A8BB9A36A4FF02B
:1028F0000208002B3FF43CAF03274FF00208E6E745
:1029000004274FF00308E2E703274FF00408DEE74F
:1029100004274FF00208DAE7E36A2BB9A36A03271A
:102920001BB94FF0010823E704273023002160681A
:1029300010AA15F05FFD30287FF40AAF10AB4FF0FE
:102940000108CDE900303FE70427B846BFE700BFE4
:10295000B858002000232DE9F043D0F8009091B042
:102960000746884650681168B9F82C5016460493FB
:1029700000F08CF9082D05906FD0B5F5847FD9F85B
:1029800008304CD01946042004AAFFF739FE04464B
:1029900068B140F608139D4205D1D9F80820D8F84F
:1029A00000301A600024204611B0BDE8F083B5F570
:1029B000C16F79D01BD8B5F5816F6CD00AD9B5F548
:1029C000A16F5ED1059AB9F82E10049805F038FB76
:1029D0000446E8E7B5F5027F56D0B5F5427F50D101
:1029E000D9F80C10049805F089FA0446DBE740F6A4
:1029F00008039D4263D040F608139D4223D1D8F8C6
:102A00000050D9F8083004982B6005F055FA0446B8
:102A10002846FFF7C5FD204611B0BDE8F083D8F881
:102A20000050042029462B6004AAFFF75BFD0446F2
:102A30000028B8D1D9F80410049805F0D9FA044652
:102A40000028AFD0E4E7B5F5E16F1AD1D8E900125C
:102A5000049805F065FA0446A5E708F10403D9F8DF
:102A600004200293D8E90043019301461046D7E9B8
:102A70000223009405F000FB0446204611B0BDE897
:102A8000F0836FF085048EE7D8F80010049805F005
:102A900023FA044687E7B9F82E100498D7E90223F1
:102AA00005F0B8FA04467EE7D7E90234B9F82E10EB
:102AB000DDE90402009405F0ADFB044673E7BD6850
:102AC0000146282206A8D8F8007015F029FC2846EF
:102AD000716806AA00F0DCF8044600287FF463AFB2
:102AE000049906A805AA05F01FFA059B04463B6059
:102AF00059E700BF2DE9F04306688DB004460D4646
:102B0000D2E90017384600F0C1F840F20162B38DF7
:102B10000090934263D026D940F60112934266D0CA
:102B200014D940F60122934246D12822002102A85E
:102B300015F0F6FBA068394602AA2C6800F0A8F848
:102B4000002800F098800DB0BDE8F08340F20172DB
:102B500093426AD040F6010293422DD100F08AFFE1
:102B60000DB0BDE8F08340F20142934269D008D92C
:102B700040F2015293421FD100F058FF0DB0BDE862
:102B8000F083012B1DD040F20112934214D1282270
:102B9000002102A815F0C4FB2C683946204602AA81
:102BA00000F076F80028CED102A800F099FF214667
:102BB00002A800F099F8C6E76FF085000DB0BDE8F7
:102BC000F08306460021282202A815F0A9FB304612
:102BD00002A92C6800F066FF0028B4D1E7E72B1D9E
:102BE000D5E9001200F07EFF30BB0020ABE72822C1
:102BF000002102A815F094FB00210846A4682D6866
:102C000000F044F803463946204602AA019300F03A
